:100000000C9439020C9461020C9461020C9461020C
:100010000C9461020C9461020C9461020C946102D4
:100020000C9461020C9461020C94472D0C94B62D33
:100030000C9461020C9461020C9461020C946102B4
:100040000C9461020C9461020C9461020C946102A4
:100050000C9461020C9461020C9461020C945C2F6C
:100060000C9461020C9461020C9461020C94610284
:100070000C9461020C9461020C9461020C94610274
:100080000C9461020C9461020C9461020C94610264
:100090000C9461020C9461020C9461020C94610254
:1000A0000C9461020C9461020C94610252096AD5AD
:1000B0003036A538BF40A39E81F3D7FB7CE339825D
:1000C0009B2FFF87348E4344C4DEE9CB547B9432AC
:1000D000A6C2233DEE4C950B42FAC34E082EA166F4
:1000E00028D924B2765BA2496D8BD12572F8F664CB
:1000F00086689816D4A45CCC5D65B6926C70485046
:10010000FDEDB9DA5E154657A78D9D8490D8AB00FA
:100110008CBCD30AF7E45805B8B34506D02C1E8F23
:10012000CA3F0F02C1AFBD0301138A6B3A9111415F
:100130004F67DCEA97F2CFCEF0B4E67396AC742248
:10014000E7AD3585E2F937E81C75DF6E47F11A71C6
:100150001D29C5896FB7620EAA18BE1BFC563E4BFF
:10016000C6D279209ADBC0FE78CD5AF41FDDA833C1
:100170008807C731B11210592780EC5F60517FA901
:1001800019B54A0D2DE57A9F93C99CEFA0E03B4D30
:10019000AE2AF5B0C8EBBB3C83539961172B047EA4
:1001A000BA77D626E169146355210C7D0000000062
:1001B000000000002A2B28000000000000000000C2
:1001C0000000000000000000000000002C9EB4A011
:1001D000A1A2A434A6A7A5AE362D3738271E1F200E
:1001E000212223242526B333B62EB7B89F848586D3
:1001F0008788898A8B8C8D8E8F9091929394959617
:100200009798999A9B9C9D2F3130A3AD3504050694
:100210000708090A0B0C0D0E0F10111213141516F6
:100220001718191A1B1C1DAFB1B0B5000000000053
:10023000240027002A002D003000000000002500C7
:1002400028002B002E0031000000000023002600B3
:1002500029002C002F0004040404040304050202F6
:10026000020204030202020206060606060604044F
:1002700002020204040000000200090F000003044F
:1002800001000C0000000000000000000000000061
:100290000000000403090412010002EF0201404FB4
:1002A0001B0492000101020301534C41524B2047B1
:1002B0006D624800534C41524B20476D624800111B
:1002C000010011003A0105260104F20101E00F3F8F
:1002D000251C1E20122A9024110000000000E10FAE
:1002E00020202020050015A73D18252A2B2B3AB1E8
:1002F000020808B40107C0020A02C10102C5025087
:100300005BC701402A840000007FFA2B0400000034
:100310009F3601C82900070605040100080A0B0CD6
:100320000D09637C777BF26B6FC53001672BFED7BD
:10033000AB76CA82C97DFA5947F0ADD4A2AF9CA46E
:1003400072C0B7FD9326363FF7CC34A5E5F171D8DE
:10035000311504C723C31896059A071280E2EB27CC
:10036000B27509832C1A1B6E5AA0523BD6B329E3EF
:100370002F8453D100ED20FCB15B6ACBBE394A4CCF
:1003800058CFD0EFAAFB434D338545F9027F503C4F
:100390009FA851A3408F929D38F5BCB6DA2110FF7B
:1003A000F3D2CD0C13EC5F974417C4A77E3D645D78
:1003B000197360814FDC222A908846EEB814DE5E05
:1003C0000BDBE0323A0A4906245CC2D3AC62919559
:1003D000E479E7C8376D8DD54EA96C56F4EA657A95
:1003E000AE08BA78252E1CA6B4C6E8DD741F4BBD36
:1003F0008B8A703EB5664803F60E613557B986C1E3
:100400001D9EE1F8981169D98E949B1E87E9CE55FF
:1004100028DF8CA1890DBFE6426841992D0FB054A9
:10042000BB1605010906A1018502050719E029E7A8
:100430001500250175019508810295017508810354
:1004400095067508150025730507190029738100A5
:10045000C004080201104080401020408040800805
:100460000204018040201002011080102040402032
:100470000F3111241FBECFEFDAE0DEBFCDBF12E097
:10048000A0E0B1E0EEE4FBE702C005900D92A83ACF
:10049000B107D9F724E0A8EAB2E001C01D92A53C5B
:1004A000B207E1F712E0C9E3D2E004C02197FE01F0
:1004B0000E94593DC833D107C9F70E945F320C949E
:1004C000A53D0C9400008F929F92AF92BF92CF9265
:1004D000DF92EF92FF920F931F93CF93DF9300D0A1
:1004E00000D0CDB7DEB7FC012EE030E02193319390
:1004F000A2E4B3E082962C91208311962C9111975F
:10050000218312962C911297228313962C91139784
:10051000238314963496E817F90769F7CF0170E042
:1005200060E020E230E0FF24F39440E2E42E8E010C
:100530000B5F1F4F5BE1B52E922E6C0144E0C41A95
:10054000D108DE011196AD01F601A1906F01FA010B
:10055000A192AF01E017F107B9F79E104DC0D98005
:10056000F0E2EF0EEA81F0E0EE5DFC4FE491EF2562
:10057000E983EB81F0E0EE5DFC4FE491EA83EC81EE
:10058000F0E0EE5DFC4FE491EB83ED2DF0E0EE5DED
:10059000FC4FE491EC83F7FE2DC0FF0CFB244C01D3
:1005A000AD906401C21AD30AC60ED71EF601D080E0
:1005B000DA24F401D1924F014A175B0789F70496B8
:1005C0002C5F3F4F6C5F7F4F203F310509F0B4CF68
:1005D00080E00F900F900F900F90DF91CF911F91BF
:1005E0000F91FF90EF90DF90CF90BF90AF909F90D2
:1005F0008F900895FF0CD3CFE92DEF71E03179F69C
:100600006D01F601A1906F01EA2DF0E0EE5DFC4F67
:10061000A490F6013197A082C416D50691F7BFCFFA
:100620002D989AE29EBD00960096009601D001C0DA
:1006300008952D9A1EBC00960096009601D001C028
:1006400008959FEF9093BD048EBD0000009601D0E9
:1006500001C008958091BE048417150681F01EBC68
:1006600000960096009601D001C008954093BE0404
:100670004EBD00000096009601D001C008952D984F
:100680008BE28EBD00960096009601D001C00895C1
:100690002D9A1EBC00960096009601D001C00895C8
:1006A0008FEF8093BC046EBD0000009601D001C0A6
:1006B00008958091BF048217130681F01EBC009636
:1006C0000096009601D001C008952093BF042EBD6E
:1006D00000000096009601D001C008952D988CE28C
:1006E0008EBD00000096009601D001C008952D9A9D
:1006F0000895EF92FF920F931F93CF93DF937A01A8
:10070000E9012C989B012C0F3D1F21503109AC01B0
:100710004E0D5F1D415051090E941003EC16FD065D
:100720002CF49E2D8F2D7E01C92FD82F219790F06C
:10073000C701009771F01EBD02D001D001C008951D
:1007400000000EBD0096009601D001C008950197EB
:1007500091F7ECCF2C9ADF91CF911F910F91FF90E1
:10076000EF9008959CB52091A4042CBD8EBD00008F
:100770000DB407FEFDCF9CBD08952D9A2C980E94C4
:10078000B2032C9A08952D982C980E94B2032C9AAB
:100790000895ECE1F3E0E49190917B008E2F880FB7
:1007A000880F80729F7D892B80937B00E770E064C7
:1007B000E0937C0080917A00806480937A0080913D
:1007C0007A0086FDFCCF80917800909179000895A1
:1007D0000F931F93CF93DF93EA01122F032F2C98CF
:1007E0004091AC045091AD049B010E9410032097EE
:1007F00071F00EBD02D001D001C0089500001EBDF1
:100800000096009601D001C00895219791F72C9A87
:10081000DF91CF911F910F910895CF93DF93FC014A
:1008200081819091D603482F490F5527551F483095
:1008300051059CF5A281B381109709F522ED33E0B3
:100840003383228320812093D4038093D503809126
:10085000D703820F80832091D803A22FB091D903B0
:100860008A2F821B8917E8F481813D91C82FD0E03F
:10087000C25FDE4F38838F5F8183F2CFD901189634
:100880002D913C91199721153105C1F722ED33E0E7
:1008900019963C932E931897D5CF80E0DF91CF9196
:1008A000089581E0FBCFFC018091E402882311F1DF
:1008B0003FB7F89482E08093E9002091F200822F04
:1008C00090E01816190614F481E090E0882339F0BE
:1008D000289844E64093E3024091F10040832223AC
:1008E00039F02091F200211103C02BE62093E8009B
:1008F0003FBF08958FEF9FEF08958091DD029091A3
:10090000DE022091E0023091E1022150310982178C
:1009100093072CF401969093DE028093DD0281E030
:100920008093D20208958091E0029091E102883094
:1009300091054CF401979093DE028093DD0281E0F3
:100940008093D20208952091DD023091DE02AC0145
:1009500047505109241735076CF7285F3F4F3093F4
:10096000DE022093DD02EBCF8091DD029091DE026A
:10097000009729F001979093DE028093DD0281E0D9
:100980008093D20208958091DD029091DE0288303A
:10099000910544F41092DE021092DD0281E0809312
:1009A000D202089508979093DE028093DD02F6CF7D
:1009B0004091C3025091C4022091C1023091C20201
:1009C00042175307B4F49091E8009570E1F39091C9
:1009D000E80092FD19C08093F1008091C3029091CC
:1009E000C40201968F739927892B19F48EEF809397
:1009F000E8008091C3029091C40201969093C402D2
:100A00008093C30281E0089580E00895DF92EF9221
:100A1000FF920F931F93CF93DF93D82E8A01EB01A0
:100A20007B01E40EF51ECE15DF0559F0D7FE12C08E
:100A3000FE0184910E94D80421968111F4CF0FEF1A
:100A40001FEFC801DF91CF911F910F91FF90EF90A1
:100A5000DF9008958881EECF2FB7F8948770809348
:100A6000E9009091E800892F807295FF04C0909171
:100A7000F20080E4891B2FBF0895AF92BF92CF92FE
:100A8000DF92EF92FF920F931F93CF93DF936C014E
:100A90007B018B01040F151FEB015E01AE18BF082F
:100AA000C017D10759F06991D601ED91FC910190E1
:100AB000F081E02DC6010995892B79F7C501DF91F9
:100AC000CF911F910F91FF90EF90DF90CF90BF904B
:100AD000AF9008958091B90281110DC082E080939A
:100AE000B50284E08093B6021092B8021092B70269
:100AF00081E08093B90285EB92E008950F931F93F4
:100B0000CF93DF931F92CDB7DEB719820E946A059B
:100B1000DC0112960D911C910115110589F0D80187
:100B2000ED91FC910280F381E02DBE016F5F7F4F5C
:100B3000C801099597FD04C0F80100851185ECCF27
:100B400089810F90DF91CF911F910F910895CF93DD
:100B5000DF931F92CDB7DEB76983DC01ED91FC9185
:100B60000280F381E02D41E050E0BE016F5F7F4FD6
:100B700009950F90DF91CF91089583E08093E9006C
:100B80008091F200882319F08AE38093E8000895A9
:100B900083E00E942C0590E00895CF93DF931F928D
:100BA000CDB7DEB7FC018485958597FD08C02FEF92
:100BB0003FEF358724870F90DF91CF910895CE01C5
:100BC00001960E945304019719F4898190E0F3CFB4
:100BD0008FEF9FEFF0CF0F931F93CF93DF931F9271
:100BE000CDB7DEB78C01FC018485958597FF0BC0DE
:100BF000CE0101960E945304019771F4898190E01F
:100C0000F80195878487F801848595850F90DF9199
:100C1000CF911F910F9108958FEF9FEFF1CFFC01BE
:100C20008485958597FD0BC09FB7F89482E08093EB
:100C3000E9008091F2009FBF90E0019608959FB770
:100C4000F89482E08093E9008091F2009FBF90E0E9
:100C5000089581508F3008F047C0E82FF0E0ED5C38
:100C6000F94F0C94593D50065406420648064C066E
:100C700074067406740657065D06610665066B0603
:100C800074066F06809180008F77809380000895AE
:100C9000809180008F7DF9CF80918000877FF5CF94
:100CA00084B58F7784BD089584B58F7DFBCF809107
:100CB00090008F77809390000895809190008F7DB1
:100CC000F9CF80919000877FF5CF8091C0008F771A
:100CD0008093C00008958091C0008F7DF9CF8091EE
:100CE000C200877F8093C2000895CF93DF93282F9F
:100CF00030E0F901EB58FD4F8491F901EF5AFB4FB9
:100D0000D491F901EA5AFD4FC491CC23A1F081118D
:100D10000E942906EC2FF0E0EE0FFF1FE85BFD4F6D
:100D2000A591B491EC91ED2381E090E009F480E08D
:100D3000DF91CF91089580E090E0FACF1F93CF9399
:100D4000DF93282F30E0F901EB58FD4F8491F90132
:100D5000EF5AFB4FD491F901EA5AFD4FC491CC23CD
:100D6000A9F0162F81110E942906EC2FF0E0EE0F5A
:100D7000FF1FE65CFD4FA591B4918FB7F894EC91FD
:100D8000111108C0D095DE23DC938FBFDF91CF9186
:100D90001F910895DE2BF8CFCF93DF9390E0FC01F5
:100DA000EF5AFB4F24918A5A9D4FFC01849188236E
:100DB000C9F090E0880F991FFC01E45DFD4FA591FB
:100DC000B491FC01E65CFD4FC591D49161110DC059
:100DD0009FB7F8948C91209582238C938881282347
:100DE00028839FBFDF91CF910895623051F49FB760
:100DF000F8943C91822F809583238C93E8812E2B4D
:100E0000EFCF8FB7F894EC912E2B2C938FBFEACFB6
:100E10003FB7F8948091B1029091B202A091B302D1
:100E2000B091B40226B5A89B05C02F3F19F00196DA
:100E3000A11DB11D3FBFBA2FA92F982F8827BC0134
:100E4000CD01620F711D811D911D43E0660F771F5B
:100E5000881F991F4A95D1F708958F929F92AF925C
:100E6000BF92CF92DF92EF92FF926B017C010E94C2
:100E700008074B015C01C114D104E104F104B9F08D
:100E80000E940807681979098A099B09683E73401E
:100E90008105910580F321E0C21AD108E108F1082B
:100EA00088EE880E83E0981EA11CB11CE4CFFF9051
:100EB000EF90DF90CF90BF90AF909F908F9008956C
:100EC0007F928F929F92AF92BF92CF92DF92EF92DA
:100ED000FF920F931F93CF93DF93C82E8B017A015C
:100EE0008091E402811110C08FEF9FEFDF91CF91CD
:100EF0001F910F91FF90EF90DF90CF90BF90AF9038
:100F00009F908F907F9008958091C60280FF05C0CA
:100F10008091E00082608093E000CE2DDF2DD12C07
:100F20008AEFB82E8C2D8770982E8C2D8072882E8B
:100F30008C2D8074782E9AE3A92E209719F4DD2049
:100F400009F452C08C2D0E942C0581110AC0BA945C
:100F5000BB2051F261E070E080E090E00E942D073C
:100F6000ECCF8C171D0611F00CF08C2F9FB7F89466
:100F70009092E9002091E80025FD02C09FBFDDCFDF
:100F8000282F30E0C21BD30B882029F08150A0F01D
:100F90001092F100FBCFF801C7FC0AC0815050F05D
:100FA00041914093F100FACF44914093F100319682
:100FB0008150D0F7020F131FDD2021F0A092E8002E
:100FC000D12CDCCF8091E80085FD07C0A092E8001D
:100FD000DD24D394209791F2F3CF209779F67720F0
:100FE00069F2A092E800CACF5D9884E68093C502BA
:100FF000C7017CCFEF92FF921F93CF93DF931F9295
:10100000CDB7DEB77C018091E30381112AC011E0E6
:101010001093D6031093D7038CED93E09093D903EC
:101020008093D8031092DB031092DA0386E192E0FA
:101030009093D3038093D2031092DE031092DD03CA
:101040001092E0031092DF031093E1031093E20388
:1010500081EC8093DC030E946A050E940D041093CA
:10106000E30382E0898341E050E0BE016F5F7F4F80
:101070008091D5030E94600797FD08C08091D50339
:1010800048E050E0B70180640E9460070F90DF9154
:10109000CF911F91FF90EF900895CF93DF93EC01D4
:1010A00080910B01882331F083E00E9460071816BD
:1010B000190634F081E090E09B838A8380E090E021
:1010C000DF91CF9108952FB7F8946091AD027091A0
:1010D000AE028091AF029091B0022FBF08950F939E
:1010E0001F93E0913E03F0913F039B01AC0122501E
:1010F00031094109510986819781A085B1850297FF
:10110000A109B109281739074A075B0778F4A281BA
:10111000B0E00E94013D0289138924893589600F5E
:10112000711F821F931F1F910F91089560E070E05F
:10113000CB01F9CF0F931F93CF93DF93EC01E09195
:101140003E03F0913F03198218826C817D818E816C
:101150009F81613071058105910581F106811781BB
:1011600020853185601771078207930738F561156F
:1011700071058105910539F42081233021F46685BC
:10118000778580899189688779878A879B876115A8
:1011900071058105910569F00E946F086C877D8754
:1011A0008E879F8790E080E0DF91CF911F910F9114
:1011B00008956685778580899189F0CF81E090E0F8
:1011C000F3CF8EBD0DB407FEFDCF08958FEF0E94C3
:1011D000E1088EB50895FF920F931F93CF93DF938D
:1011E000C82FD42F152F062FF72E8091AB02811117
:1011F0003FC083E58CBD1DBCC7FF09C040E050E087
:10120000BA0187E70E94EB08823060F5CF7761E092
:1012100083E00E949E060E94E60860E083E00E9450
:101220009E060E94E6088C2F0E94E1088F2D0E94E6
:10123000E108802F0E94E108812F0E94E1088D2F94
:101240000E94E10885E9C03421F087E8C83409F03C
:1012500081E00E94E108CAE00E94E60887FF02C020
:10126000C150D1F7DF91CF911F910F91FF90089559
:1012700080E58CBD81E08DBDBFCFCF92DF92EF9234
:10128000FF920F931F93CF93DF937C0169018091AD
:10129000AB0283FD07C089E0440F551F661F771F0F
:1012A0008A95D1F781E50E94EB08811108C0C0E45E
:1012B000DCE90E94E6088F3F29F42197D1F7C1E0CD
:1012C000D0E022C08E3FD9F7C2E0D2E0C01BD10BE4
:1012D000CC19DD0981E0C81AD10818F00E94E6088F
:1012E000F9CFE114F10401F10E0D1F1D0E94E60873
:1012F000F70181937F010E171F07C1F70E94E608CF
:101300002197E1F7D0E0C0E061E083E00E949E0613
:101310000E94E608CE01DF91CF911F910F91FF90BF
:10132000EF90DF90CF9008950E94E60801501109D8
:10133000D9F7E4CFCF92DF92EF92FF920F931F93F2
:10134000CF93DF93EC016A017B0102E010E02EEF06
:1013500031E00E943D09892B31F5888199818535DD
:101360009A4A59F526E330E0B701A601CE010E9462
:101370003D09892B29F4888199818634914489F02B
:1013800002E010E022E530E0B701A601CE010E94A4
:101390003D09892BA1F481E028813981263431442B
:1013A00019F480E001C083E0DF91CF911F910F918C
:1013B000FF90EF90DF90CF90089582E0F5CF81E02D
:1013C000F3CF4F925F926F927F928F929F92AF92E4
:1013D000BF92CF92DF92EF92FF920F931F93CF9322
:1013E000DF93CDB7DEB7A4970FB6F894DEBF0FBE7C
:1013F000CDBF40E050E0BA01CE0101960E949A09AB
:10140000C12CD12C76018130B1F500E110E02EEB3A
:1014100031E040E050E0BA01CE0101960E943D0962
:10142000892BC9F081E090E0A4960FB6F894DEBF56
:101430000FBECDBFDF91CF911F910F91FF90EF9025
:10144000DF90CF90BF90AF909F908F907F906F90E4
:101450005F904F9008958D81811103C086E090E0E8
:10146000E3CFC984DA84EB84FC84B701A601CE0102
:1014700001960E949A098330A9F28111EFCF04E20C
:1014800010E02DE030E0B701A601CE0101960E94E8
:101490003D09892B39F62A853B8550E040E021152E
:1014A00031054105510521F4288D398D4A8D5B8D1B
:1014B000AC81B0E00E94013D4B015C014A815B813F
:1014C00070E060E0C40ED51EE61EF71EC0921E033B
:1014D000D0921F03E0922003F0922103E981E09370
:1014E00016038D819E8190931903809318030F81B9
:1014F000188530E020E0011511052105310521F4A2
:101500000C891D892E893F89F4E096958795FA9577
:10151000E1F72C01712C612C041B150B260B370BEA
:10152000C901B801681979098A099B096419750903
:10153000860997092E2F30E050E040E00E94143DCC
:10154000DA01C9010296A11DB11D80931A0390937F
:101550001B03A0931C03B0931D03265F3F4041096A
:1015600051092F3F3F4E4105510508F440C0873FC8
:101570002FEF9207A105B10550F183E0809314038A
:1015800088A199A1AAA1BBA18093220390932303D0
:10159000A0932403B0932503C40CD51CE61CF71CB0
:1015A0008C0C9D1CAE1CBF1C8092260390922703BE
:1015B000A0922803B09229031092150384E193E0CE
:1015C00090933F0380933E0390E080E02DCF873FD0
:1015D0009F40A105B10508F041CF81E0809314033D
:1015E000D501C4018C0D9D1DAE1DBF1DCDCF873F04
:1015F0009F4FA105B10508F682E0F0CF4F925F92B0
:101600006F927F92AF92BF92CF92DF92EF92FF9252
:101610000F931F93CF93DF9300D000D0CDB7DEB7E9
:10162000623071058105910528F461E070E080E089
:1016300090E063C0A0903E03B0903F03F501C680E8
:10164000D780E084F1846C157D058E059F0568F7D1
:101650006B017C018081823009F462C0833009F41F
:101660007BC0813011F72B0156944794460E571ECC
:1016700092013170452C55244694712C612C428581
:10168000538564857585440D551D661D771D02E0E3
:1016900010E0CE0101962F3FF1E03F07E1F401E0B9
:1016A00010E02FEF31E0CE0101960E943D09892B19
:1016B00009F0BBCFF50142855385648575854F5F81
:1016C0005F4F6F4F7F4F440D551D661D771D30E0F6
:1016D00020E0CE0102960E943D09892B09F0A5CF9A
:1016E00069817A81C0FC02C07F7005C0E4E0769514
:1016F0006795EA95E1F790E080E00F900F900F90EA
:101700000F90DF91CF911F910F91FF90EF90DF909D
:10171000CF90BF90AF907F906F905F904F90089563
:101720009B013327220F331FCD2CDE2CEF2CFF24FF
:1017300042855385648575854C0D5D1D6E1D7F1D2D
:1017400002E010E0CE0101960E943D09892B09F0CC
:101750006CCF69817A81CFCF9B012F773327220FFE
:10176000331F220F331F97E0F694E794D794C79462
:101770009A95D1F742855385648575854C0D5D1D1D
:101780006E1D7F1D04E010E0CE0101960E943D0910
:10179000892B09F04ACF69817A818B819C819F7066
:1017A000ACCF6F927F928F929F92AF92BF92CF9267
:1017B000DF92EF92FF920F931F93CF93DF934C0131
:1017C0007B015A01C0913E03D0913F03FA0111827F
:1017D000108285E090E0209709F44AC0898180FF5B
:1017E000A2C08A8D9B8DAC8DBD8D4E895F89688D21
:1017F000798D841B950BA60BB70BA70170E060E0F9
:1018000084179507A607B70708F47C01612C32E01E
:10181000732EE114F10409F489C08E899F89A88D83
:10182000B98DAC01BD01517066277727452B462B3A
:10183000472B09F04AC0DA80DA94AC01BD0129E0F7
:1018400076956795579547952A95D1F7D42251F506
:10185000892B8A2B8B2BD9F46E8D7F8D88A199A132
:101860006230710581059105C8F4198281E090E02C
:10187000DF91CF911F910F91FF90EF90DF90CF906C
:10188000BF90AF909F908F907F906F9008956AA1C6
:101890007BA18CA19DA10E94FE0AE2CF6AA37BA33B
:1018A0008CA39DA36AA17BA18CA19DA10E946F081E
:1018B0006115710581059105C1F26D0D711D811DC7
:1018C000911D6EA37FA388A799A72E893F893170A8
:1018D000C301821B930B67018E159F0508F46C01F1
:1018E0004EA15FA168A579A58601C4010E943D09AA
:1018F000892B09F0BACF8E899F89A88DB98D8C0D5F
:101900009D1DA11DB11D8E8B9F8BA88FB98F8C0C37
:101910009D1CEC18FD08F50180819181C80ED91E2F
:10192000D182C08276CF84E090E0A2CF90E080E0C8
:101930009FCFCF92DF92EF92FF920F931F93CF939F
:10194000DF93EC01088119810F5F1F4F59F483E089
:1019500090E0DF91CF911F910F91FF90EF90DF907A
:10196000CF9008954C855D856E857F854115510525
:101970006105710561F3C8018F709927892BD9F42E
:10198000E0903E03F0903F034F5F5F4F6F4F7F4FFC
:101990004C875D876E877F87688579858A859B857B
:1019A000F701611571058105910551F484819581D7
:1019B0000817190760F61983088390E080E0C9CF03
:1019C0002281E22FE150FF0BAF019801E4E0369550
:1019D0002795EA95E1F724233523232B61F70E940D
:1019E000FE0A6230710581059105B0F0F701C680ED
:1019F000D780E084F1846C157D058E059F0508F085
:101A0000A6CF688779878A879B870E946F086C8733
:101A10007D878E879F87CFCF81E090E09ACFEF922E
:101A2000FF920F931F93CF93DF93CDB7DEB7AC97A1
:101A30000FB6F894DEBF0FBECDBF20913E033091AC
:101A40003F03232B09F4BEC07C01CE018196909305
:101A500007038093060383E090E0409110035091C8
:101A60001103609112037091130341155105610533
:101A7000710509F47AC020910403309105032F7099
:101A8000332785E0220F331F8A95E1F700E210E04B
:101A9000CE0101960E943D09892B09F082C08981FF
:101AA000882309F481C0853E29F08E3219F08C8597
:101AB00083FF12C084E093E00E94990C009769F2C2
:101AC000109210031092110310921203109213033C
:101AD0008330910509F058C0F701399680911003C1
:101AE00090911103A0911203B0911303892B8A2BBB
:101AF0008B2B09F43FC0DE01119697012F5E3F4FFB
:101B00008D91803261F0853009F485EEAF014F5F31
:101B10005F4F80832417350709F049C0F901898593
:101B2000803241F09EE2908381838A85803209F081
:101B300040C032968C85D70118968C9318974D8D9E
:101B40005E8D6F8D78A14D935D936D937C9313970C
:101B5000898D9A8D15969C938E9314978F89988D65
:101B600017969C938E93169705C0F70139960097A8
:101B700009F0A6CF108284E093E00E94990C833094
:101B8000910511F490E080E0AC960FB6F894DEBFBA
:101B90000FBECDBFDF91CF911F910F91FF90EF90BE
:101BA000089581E090E08CCF83E090E089CFFA0146
:101BB000A7CF82838B85803211F43396BBCF83838A
:101BC0003496B8CF85E090E0DFCF9F92AF92BF927E
:101BD000CF92DF92EF92FF920F931F93CF93DF93F9
:101BE000EC017B016A01DA018C914F5F5F4F80321B
:101BF000C9F38F3209F46A011C821D821E821F8282
:101C0000F601808150E2952E803208F0B7C0CE01F7
:101C10000E949A085C01D7011C92C501DF91CF9107
:101C20001F910F91FF90EF90DF90CF90BF90AF90FA
:101C30009F90089590E0E0E088E055C0C30ED11C6D
:101C400081E0E13208F080E0FB018387CE010E9451
:101C50009A085C01892B09F7288139812F70332775
:101C600045E0220F331F4A95E1F74C855D856E856F
:101C70007F8500E210E0C7010E943D09892B21F514
:101C8000D7018C91882321F11B968C9183FD11C083
:101C90000A811B819701D801A801455F5F4F4A1750
:101CA0005B0709F446C0F90161919F019D91691795
:101CB000B1F3CE010E94990C009771F25C01ADCF97
:101CC00080E090E0DC014DC0AA24A394B12CA5CF04
:101CD00083E0A82EB12CA1CF883009F0AFCF2BE044
:101CE000982FE32F822F31E03E0FEC0DFD2DF11DDB
:101CF000E081E13208F4A2CFEF3209F49FCFEE3257
:101D000059F3981708F09ACFE7FF05C0E058FF0B8A
:101D1000E658FE4FE0812FE92E0F2A3108F4E052F9
:101D2000AB01490F511DDA01EC93282F81E0890F97
:101D3000D7CFD8011B969C9191116FCF84FFC8CF4C
:101D4000E0913E03F0913F038081833009F0B8CFEA
:101D5000D70154968D919C91B0E0A0E0DC019927C9
:101D60008827F701428D538D70E060E0842B952B1E
:101D7000A62BB72B8C839D83AE83BF836A817B8127
:101D8000FB01CB010B968E179F0709F453CF91925D
:101D9000FACFAF92BF92CF92DF92EF92FF920F9362
:101DA0001F93CF93DF9300D000D0CDB7DEB78091E3
:101DB000AB02882331F183E00E947506892B09F577
:101DC00080E00E94E10880E00E94E1080E94E608AD
:101DD0008F71853081F409E813E148ECE42EF12C91
:101DE0000E94E6088F3F39F00150110921F0C70128
:101DF0000197F1F7F5CF61E083E00E949E060E9413
:101E0000E60861E081E10E949E0661E081E10E94B6
:101E1000CC0661E080E10E94CC0661E08FE00E9488
:101E2000CC0661E083E00E94CC0683E58CBD1DBC3E
:101E300061E083E00E949E061AE00E94E6081150CD
:101E4000E1F740E050E0BA0180E40E94EB08182F6F
:101E50008130D9F010E01093AB0261E083E00E9482
:101E60009E060E94E60881E0111180E00F900F901D
:101E70000F900F90DF91CF911F910F91FF90EF90F6
:101E8000DF90CF90BF90AF9008954AEA51E060E0B4
:101E900070E088E40E94EB08813071F5CE01019674
:101EA0007C016E0195E0C90ED11C87010E94E608F5
:101EB000F80181938F01CE16DF06C1F78B81813047
:101EC00049F68C818A3A31F620E1C22E27E2D22EE1
:101ED00038ECA32EB12C40E050E060E070E489EED5
:101EE0000E94EB08882351F1C5010197F1F7F1E059
:101EF000CF1AD10881F7AECF40E050E0BA0189EEA9
:101F00000E94EB0801E4823010F412E009EE80E157
:101F1000E82E87E2F82E98ECC92ED12C40E050E054
:101F2000BA01802F0E94EB088823F1F0C6010197C7
:101F3000F1F7F1E0EF1AF10889F78CCF40E050E0BB
:101F4000BA018AE70E94EB08811184CF0E94E6085B
:101F5000F70181937F010E171F07C1F789811CE0EC
:101F600086FD79CF14E077CF40E052E060E070E08A
:101F700080E50E94EB08882309F46DCF6BCFDC016C
:101F8000FB0112962C9112978481958128171906CE
:101F900041F491818081813A31F49D7F81E09130DB
:101FA00009F080E008958132E1F79B3029F48281C5
:101FB0001F968C9381E008959A3099F7828150960C
:101FC0008C93F8CFDC01FB0188E4808389E4818372
:101FD00084E482831D969C911D979F709F5B9383E1
:101FE0001D968D919C9124E0969587952A95E1F711
:101FF0008F708F5B848385E00895EF92FF920F933B
:102000001F93CF93DF93FB012081213871F523814A
:10201000223259F5DC0112964C9124813581421708
:10202000130619F5EC010B851C85F12CE12C01152B
:10203000110589F0F801448155816281738180E83E
:102040000E9406058F3F980749F0E80EF91ED80157
:102050000D911C91ECCF81E08F87C701DF91CF916B
:102060001F910F91FF90EF90089590E080E0F6CFE0
:10207000CF93DF93CDB7DEB769970FB6F894DEBF85
:102080000FBECDBFFC01DB018C918F5F8C939E0155
:102090002D5F3F4F8DE0D9011D928A95E9F729E028
:1020A000298384E08A8391E09D8383E08E832A875D
:1020B00021E22B879C879D879F8722E2288B27E040
:1020C0002B8B25E02C8B8E8B20E430E0388F2F8BF0
:1020D000998F82818B8395858685998B8A8B838165
:1020E00080688D8B49E150E0BE016F5F7F4F80E0DB
:1020F0000E94060569960FB6F894DEBF0FBECDBFED
:10210000DF91CF910895CF92DF92EF92FF920F93DC
:102110001F93CF93DF936C01EB017B01E40EF51E5F
:1021200010E000E0CE15DF0581F069916D30D1F34C
:10213000D601ED91FC910190F081E02DC601099549
:10214000892B19F00F5F1F4FEDCFC801DF91CF91A1
:102150001F910F91FF90EF90DF90CF900895DC01D9
:10216000683888F1685816968C911697861721F171
:1021700017968C9117978617F9F018968C911897E7
:102180008617D1F019968C9119978617A9F01A968F
:102190008C911A97861781F01B968C911B97861746
:1021A00059F0FD01369690E080E02191211139C06F
:1021B0008A0F9B1FFC016683CD0104960E94FA07DB
:1021C00081E090E00895E62FF0E067FF11C0E0584D
:1021D000F10921E030E001C0220FEA95EAF71496F8
:1021E0008C911497822B14968C93149760E0BBCF3C
:1021F000E455FE4F6491611109C081E090E01396AF
:102200009C938E93129790E080E0089567FFABCF88
:1022100014968C911497826014968C9314976F7710
:10222000A2CF01968630910509F0BFCFE6CFEF929D
:10223000FF920F931F93CF938C01C62F0E94AF1074
:102240007C01C838C8F0C858F80186E0CC2321F0DA
:102250009681C91301C01682815031968111F6CF43
:10226000C80104960E94FA07C7019927CF911F91D0
:102270000F91FF90EF900895EC2FF0E0C7FF0FC093
:10228000E058F10981E090E001C0880FEA95EAF793
:102290008095F801948189238483C0E0D5CFE455EB
:1022A000FE4FC491CC2301F3C7FFCECFF801848148
:1022B0008D7F8483CF77C8CFBC016E5F7F4FDC01F9
:1022C000ED91FC910190F081E02D40E0099591E0C5
:1022D000811190E0892F08958EBD00000DB407FE96
:1022E000FDCF8EB5089580912104882321F080913F
:1022F00049040E946C11809148040E946C118091E5
:1023000047040E946C11809146040E946C1181E088
:102310000895AF92BF92CF92DF92EF92FF920F9308
:102320001F93CF93DF93FC012081318137FD15C0CE
:10233000EC01822F0E9475065C01088519850E94B8
:1023400063086B017C018BA59CA5009789F481E053
:1023500090E0A016B10609F4A3C0DF91CF911F91C0
:102360000F91FF90EF90DF90CF90BF90AF900895C6
:102370008130910509F04DC08DA59EA5AFA5B8A9E6
:10238000B701A601481B590B6A0B7B0BA016B106BF
:10239000A9F08A819B81B0E0A0E0481759076A073D
:1023A0007B0718F41CA61BA6D8CF82E090E09CA760
:1023B0008BA7C9AADAAAEBAAFCAACFCF8E819F81EC
:1023C000B0E0A0E084179507A607B70730F681E0D4
:1023D0008A87EF89F88D309709F00995E98DFA8D94
:1023E000309709F00995EB8DFC8D309719F08D8DA4
:1023F0009E8D0995EDA1FEA1309709F00995EFA1F9
:10240000F8A5309719F089A59AA5099586E090E07E
:10241000CECF8230910509F04AC089899A89892BEB
:1024200021F48B899C89892B99F08DA59EA5AFA558
:10243000B8A9B701A601481B590B6A0B7B0B8C810D
:102440009D81B0E0A0E084179507A607B70770F458
:10245000EB85FC85309709F00995ED85FE85309771
:1024600009F4A0CF8F85988909959CCFA016B10655
:1024700009F073CF89A99AA9ABA9BCA9B701A60194
:10248000481B590B6A0B7B0B8A819B81B0E0A0E053
:1024900084179507A607B70708F05FCF83E090E0A1
:1024A0009CA78BA7CDA6DEA6EFA6F8AA56CF8330B1
:1024B000910539F5A016B10609F44FCF8DA59EA55B
:1024C000AFA5B8A9B701A601481B590B6A0B7B0B36
:1024D0008A819B81B0E0A0E084179507A607B70723
:1024E00008F03BCFE989FA89309709F00995EB8923
:1024F000FC89309719F08D899E8909951CA61BA629
:1025000058CF069709F029CFA016B10669F01A86B0
:10251000EF8DF8A1309709F00995E9A1FAA130975C
:1025200069F38BA19CA1E9CF81E08A87EDA1FEA18F
:10253000309709F00995EFA1F8A5309709F40DCF70
:1025400089A59AA5DF91CF911F910F91FF90EF90F0
:10255000DF90CF90BF90AF900994CF93CFB7F8940E
:102560008091AA02811127C0E7E6F2E08491E2E6B9
:10257000F4E09491E82FF0E0EE0FFF1FE45DFD4FD3
:10258000A591B491EC91E92321F461E081E10E94ED
:102590009E0661E081E10E94CC068CB580618CBD15
:1025A0008CB580648CBD61E08FE00E94CC0661E058
:1025B00080E10E94CC068091AA028F5F8093AA02DC
:1025C000CFBFCF910895CF93DF93CDB7DEB72897D4
:1025D0000FB6F894DEBF0FBECDBFDC01A25FBE4FC9
:1025E0002FE0EBE1F1E001900D922A95E1F79E01D9
:1025F0002F5F3F4F48E0F90111924A95E9F741E01A
:102600004887DC01A650BF4F48E0F90101900D92C8
:102610004A95E1F7DC01AE5FBE4F88E0F901019019
:102620000D928A95E1F728960FB6F894DEBF0FBE9B
:10263000CDBFDF91CF910895CF93DF93FC01EB01E4
:10264000DA019C01205F3F4F88819C91892780831C
:10265000898111969C911197892781838A8112968D
:102660009C911297892782838B8113969C91139753
:1026700089278383349624961496E217F30721F76B
:10268000DF91CF910895FC016D3039F084A1813044
:1026900091F06A3029F4158A148A81E090E0089557
:1026A00080A58823D1F324893589808991892817C9
:1026B000390788F7F2CF90E080E00895089590E020
:1026C00080E008958091E2029091A802911102C0E9
:1026D0008093A8029091A802981739F09091C802AF
:1026E0009F5F9093C8028093A8028091C8028430B3
:1026F00010F01092C802E091C802F0E0E753FD4FDD
:1027000080818F5F8A30C8F48083E9ECF2E02DECA1
:1027100032E090E080E07AE06191789FA001799FBB
:10272000500D1124CA01860F911D2E173F07A1F7E6
:102730009093D1028093D00208951082E6CF81E079
:102740008093E2020C94621382E08093E2020C9484
:10275000621308958CBD9DBD0895DF92EF92FF92A4
:102760000F931F93CF93DF937C01062FD42E152F49
:1027700083E590E00E94AA1360E0F70186850E943D
:102780009E0682E10E946C11CD2DD12F0C0F1D2FC2
:10279000111DC017D10721F089910E946C11F9CF4A
:1027A00061E0F7018685DF91CF911F910F91FF9036
:1027B000EF90DF900C949E06CF93C82F80911F045A
:1027C00081110FC08CB5809327048DB580932804A8
:1027D00080911704909118040E94AA1381E08093BD
:1027E0001F0460E080911B040E949E06CB30D1F054
:1027F00048F4C23079F083E0C33069F08C2F0E9436
:102800006C110DC0C23599F0C83D99F0C032B1F7D6
:1028100080E201C082E00E946C110E94731181E08D
:10282000CF9108958BE00E946C118EEEF4CF82E57B
:10283000F2CF88EDF0CFCF93DF9385E00E94DC13D9
:1028400080E00E946C11C7E1D4E08D8761E08C814B
:102850000E949E068D85DF91CF910895CF93DF93DF
:1028600085E10E94DC1380E00E946C11C7E1D4E096
:102870008F8761E08C810E949E068F85DF91CF91CA
:1028800008951F93CF93DF93EC01162F83E590E01B
:102890000E94AA1360E08E850E949E06812F8068A8
:1028A0000E946C1180E00E946C11182F61E08E85EF
:1028B0000E949E06812FDF91CF911F9108950F9363
:1028C0001F93CF93DF93EC01062F142F83E590E045
:1028D0000E94AA1360E08E850E949E06802F0E94AF
:1028E0006C11812F0E946C1161E08E85DF91CF9178
:1028F0001F910F910C949E06CF92DF92EF92FF9260
:102900000F931F93CF93DF93EC016B01142F790189
:1029100040E062E00E945F1444E06AE0CE010E9461
:102920005F1440E864E1CE010E945F14A601612FAC
:10293000CE010E94AD1343E062E0CE010E945F141D
:1029400008E813E16AE0CE010E94411482FF1BC037
:1029500040E062E0CE010E945F1464E4CE010E9478
:102960004114F701808362E4CE010E944114F70113
:10297000818380E0DF91CF911F910F91FF90EF90C5
:10298000DF90CF90089501501109E1F683E0F2CF76
:102990003F924F925F926F927F928F929F92AF92EF
:1029A000BF92CF92DF92EF92FF920F931F93CF933C
:1029B000DF9300D0CDB7DEB73C01162F942E29014E
:1029C00080E0A114B10411F0F5018081382C32941B
:1029D00090EF3922380E40E062E0C3010E945F149C
:1029E0004FE768E0C3010E945F1440E864E1C3015F
:1029F0000E945F14A201602FC3010E94AD13432DFA
:102A00006AE1C3010E945F14412F62E0C3010E948A
:102A10005F141C3051F46AE1C3010E944114482F35
:102A200040686AE1C3010E945F1400ED17E068E0AE
:102A3000C3010E944114982F992109F0B3C080FD71
:102A400003C00150110999F783E092C0E114F10429
:102A500009F46BC0C114D10409F467C064E1C30177
:102A60000E944114982EF6018081891508F494C0C3
:102A700090829920C9F183E590E00E94AA1360E05A
:102A8000F30186850E949E069A9482E90E946C1149
:102A9000882099F00FEF10E001C0000F8A94EAF748
:102AA00082E90E946C11902F9095F701208192236A
:102AB0008023982B9083882483948701080D111D0F
:102AC000891440F482E90E946C11F80181938F010E
:102AD0008394F6CF80E00E946C11F801808361E05E
:102AE000F30186850E949E0668E1C3010E9441149D
:102AF0008770A114B10411F0F501808353FC4EC01E
:102B0000E114F10409F44CC0C114D10409F448C023
:102B10009E89992309F444C0F6014081413039F47B
:102B2000843009F049C08FEF23C080E0E7CF423006
:102B300008F442C0811140C042509E012F5F3F4FB8
:102B4000B701C3010E947C14811112C0F60190816B
:102B5000E90EF11CF70132972081998129132CC0CD
:102B6000F1E0EF1AF108F70120819A81291324C0BE
:102B70000F900F90DF91CF911F910F91FF90EF90E9
:102B8000DF90CF90BF90AF909F908F907F906F908D
:102B90005F904F903F90089584E0EACF82E0E8CFC5
:102BA00080E0E6CF6CE0C3010E944114582E83718F
:102BB00009F44CCF81E0DCCF87E0DACF6F927F92CF
:102BC0008F92AF92BF92CF92DF92EF92FF920F93CC
:102BD000CF93DF9300D000D01F92CDB7DEB73C017A
:102BE00082E08D8340E064E2C3010E945F1440E014
:102BF00066E2C3010E945F1446E268E4C3010E94DA
:102C00005F1486E28B838D818230F0F16CE1C30129
:102C10000E944114482F4F776CE1C3010E945F145A
:102C200087E08C831F92812CCE0104965C01019673
:102C30006C0104977C0101E09E012D5F3F4F40E352
:102C40006CE0C3010E94C814982F0F90811119C025
:102C50008D818230C9F48C81811116C081E00F9082
:102C60000F900F900F900F90DF91CF910F91FF90E9
:102C7000EF90DF90CF90BF90AF908F907F906F904C
:102C8000089581E0923059F380E0E9CF8F92AF92BE
:102C9000BF92CF92DF92EF92FF920F939091160125
:102CA000923178F190E3909362038093630324E67A
:102CB00033E042E062E673E085E094E00E947C1439
:102CC000811116C081E08F93812CB12CA12C86E15B
:102CD000C82E81E0D82E92E6E92E93E0F92E04E08A
:102CE000970140E36CE085E094E00E94C8140F90E7
:102CF0000F91FF90EF90DF90CF90BF90AF908F90AB
:102D0000089584E0F5CF0F931F93CF93DF9381E075
:102D10000E9446168093CF02811126C002E613E07E
:102D2000E2E4F3E082E793E0E801299121938C1734
:102D30009D07D9F782E00E9446168093CF02811149
:102D400013C0E2E5F3E0D8018D918D018193CA179C
:102D5000DB07C9F780910303882359F08AE090E0EC
:102D600090930D0180930C01DF91CF911F910F91F2
:102D7000089581E190E0F4CF8F92AF92BF92CF920D
:102D8000DF92EF92FF920F93CF93DF93CDB7DEB731
:102D90002C970FB6F894DEBF0FBECDBF80E68983B7
:102DA0001A82E5EEF2E0DE01139681918D9382E0C6
:102DB000EB3EF807D1F7E0910704E150FF0BEB5F22
:102DC000FB4FDE011996CE010D9621912D93A81788
:102DD000B907D9F71F92812CB12CA12CD12CC12C71
:102DE000F12CE12C0CE09E012F5F3F4F40E16EE0A3
:102DF00085E094E00E94C8140F902C960FB6F894CA
:102E0000DEBF0FBECDBFDF91CF910F91FF90EF904E
:102E1000DF90CF90BF90AF908F9008952F923F9208
:102E20004F925F926F927F928F929F92AF92BF92DA
:102E3000CF92DF92EF92FF920F931F93CF93DF9386
:102E4000CDB7DEB72E970FB6F894DEBF0FBECDBF5D
:102E500006E0413508F04BC14E872B013C016CE187
:102E60000E944114482F4F776CE1C3010E945F1408
:102E700083E989832E85222329F081E0F201908164
:102E8000953008F480E0992493941C869C85990FD2
:102E9000990F990F1E85191B17FD10E032E088234A
:102EA00019F098E89B8333E021E0912F977009F4A3
:102EB00020E0912F959595959595290FD1F094E067
:102EC000811193E0291708F4922F2C85E22FF0E06E
:102ED0003196E40DF51D232F4191A1E0B0E0AC0F38
:102EE000BD1FA20FB11D4C932F5F422F431B4917EB
:102EF00098F38111185F10320CF484C080E78A8344
:102F00008B819C8189279D8189279E8189278F8339
:102F10009E01285F3F4F47E0BE016F5F7F4FC301B7
:102F20000E947C14082F8111E2C01A8693E09B87CF
:102F30001D87FE0137961F0109E08A84482D4295BE
:102F4000407F480D6AE1C3010E945F141F92CE01C9
:102F50000A965C01FE013B966F0171019E012F5F95
:102F60003F4F40E36CE0C3010E94C814082F0F904C
:102F7000823009F065C06CE1C3010E94411485FDF7
:102F8000B6C08F7109F480E2282F30E0412F110F75
:102F9000550B421753070CF09EC0182FE22FE595F2
:102FA000E595E595EF5F922F977081E009F480E059
:102FB000E80F81E090E08C0F9D1F8E0F911DFC01AA
:102FC000215031092770332781E090E002C0880F3B
:102FD000991F2A95E2F79C018081822B80838BCFF9
:102FE00085E98983FE85FF2331F081E0F20190813C
:102FF000983008F04BCF80E049CF87E98983F6E02D
:10300000FC87F9CF912F97709A87812F85958595A9
:1030100085958E5F282F2295207F290F2A8301E036
:10302000911101C000E0080F22242394312C2C0EB2
:103030003D1E280E311CF9E0F81BFB871D877DCF54
:10304000811155C010E29D8590320CF457CF8B81D1
:10305000883809F042C083E093E02C85E22FF0E04D
:103060003196E40DF51D980FA1E0B0E0AC0FBD1F47
:10307000A80FB11D2C9121938F5F8913F5CF8B85FC
:103080008C87833009F04DC08A8581114AC09E012A
:103090002D5F3F4F41E0B101C3010E947C14082F16
:1030A000811125C09B81F101818198133CC09C81D5
:1030B0008281981338C0808182FF12C09394F2E01D
:1030C0009F1609F48DCF23E0921609F496CF81E084
:1030D000981609F4CDCE05E00AC082E094E0BDCF99
:1030E000F2018387892D880F980E93949082802F08
:1030F0002E960FB6F894DEBF0FBECDBFDF91CF91F5
:103100001F910F91FF90EF90DF90CF90BF90AF9005
:103110009F908F907F906F905F904F903F902F90F7
:10312000089501E0E4CF07E0E2CFCF93C82F61E03C
:1031300083E00E949E0661E086E00E949E0661E0B8
:1031400088E00E949E0661E080E00E949E06C330F7
:1031500091F020F4CC2319F1CF910895C630B1F04D
:10316000C830D1F780911504909116040E94AA13DB
:1031700060E088E008C080911504909116040E94D8
:10318000AA1360E083E0CF910C949E068091150411
:10319000909116040E94AA1360E086E0F4CF80911B
:1031A0001504909116040E94AA1360E080E0EBCF12
:1031B0000F931F938C0188E00E949518ECE9F4E0CE
:1031C000228933894089518970E060E090E080E095
:1031D0000E9479031F910F9108958F929F92AF9251
:1031E000BF92CF92DF92EF92FF924B015C0185E09C
:1031F0008A95F1F700000E9408076B017C010E948C
:103200001B148091240480FF28C08FEFC81AD80AAD
:10321000E80AF80A0E9408076C197D098E099F09BF
:10322000681579058A059B0550F30E940807AB01D4
:10323000BC014C195D096E097F0981E048155905EB
:103240006A057B0508F080E0FF90EF90DF90CF905B
:10325000BF90AF909F908F90089581E0F5CF86E06A
:103260000E94DC1361E080911B040E949E060E9474
:103270001B1481FD05C086E08093230480E008953F
:1032800081E0089561E080911B040E949E06809178
:103290002104882399F00E942E1480FF0FC089EE2C
:1032A0000E94DC1361E080911B040E949E060E9434
:1032B0002E1480FF0CC08EE080932304809127049D
:1032C0008CBD809128048DBD10921F04089510922A
:1032D0002104F4CF8F929F92AF92BF92CF92DF9250
:1032E000EF92FF920F931F93CF93DF937A0189019F
:1032F0007727C0E0D1E0C61BD70BD12CC12CC21759
:10330000D30708F45AC060E080911B040E949E0617
:1033100082E00E946C110E947311E7010E0D1F1DC7
:10332000C017D10721F089910E946C11F9CF61E09B
:1033300080911B040E949E060E94421981E026C0D3
:1033400061E080911B040E949E068091460490914A
:103350004704A0914804B09149048C0F9D1FA11D02
:10336000B11D8093460490934704A0934804B09302
:103370004904CC0EDD1E0C1B1D0B68EE73E080E0D3
:1033800090E00E94ED1881110EC080E0DF91CF9196
:103390001F910F91FF90EF90DF90CF90BF90AF9073
:1033A0009F908F9008950E942F19882371F3C0E099
:1033B000D1E00115110509F4BFCF0C171D0708F462
:1033C000E80160E080911B040E949E0682E00E945A
:1033D0006C110E94731147018C0C9D1C5401C50196
:1033E000881999098C179D0708F0AACFF5018191DA
:1033F0005F010E946C11F3CFCF92DF92EF92FF92A8
:10340000E0912304E77FE33081F0C0903A04D0904C
:103410003B04E0903C04F0903D04C114D104E1046D
:10342000F10429F481E08093230480E01EC0260F7C
:10343000371F481F591F2C153D054E055F05D0F05D
:103440002C193D094E095F0920934A0430934B041F
:1034500040934C0450934D0460934604709347048A
:10346000809348049093490481E0FF90EF90DF90AF
:10347000CF90089510924A0410924B0410924C047D
:1034800010924D04E9CF8F929F92AF92BF92CF924C
:10349000DF92EF92FF920F931F93CF93C82F4A01B1
:1034A0005B0168017901809133048F3EC9F4811476
:1034B0009104A10481E0B80698F00E942E1480FDCA
:1034C0000FC087EB0E94DC1361E080911B040E9417
:1034D0009E060E942E1480FF25C081E08093210467
:1034E00080912004C23071F1CF3E09F468C081118F
:1034F0002BC0A7019601C501B4010E94FC198823C5
:10350000A1F068EE73E080E090E0CF911F910F9101
:10351000FF90EF90DF90CF90BF90AF909F908F90F3
:103520000C94ED188DE08093230480E0CF911F91DF
:103530000F91FF90EF90DF90CF90BF90AF909F9052
:103540008F900895882311F08FE0EDCFA7019601A9
:10355000C501B4010E94FC19882339F383E00E945D
:10356000DC13F12CE12CCE14DF0479F080E00E9412
:103570006C119FEFE91AF90A8F3FA9F361E080917E
:103580001B040E949E0687E0CECF61E080911B0461
:103590000E949E0668EE73E080E090E00E94ED18C5
:1035A000882319F2CF911F910F91FF90EF90DF9038
:1035B000CF90BF90AF909F908F900C942F19811156
:1035C000C3CFA7019601C501B4010E94FC1988234D
:1035D00009F4ABCFDFCF0F931F93AB01BC0100E029
:1035E00010E120E030E08FEE0E94431A882369F05A
:1035F00080E20E94DC130E94421960E271EA87E0D7
:1036000090E01F910F910C94ED1880E01F910F91A5
:1036100008958F929F92AF92BF92FF920F931F9344
:10362000CF93DF934B015C01F42E01E010E020E02A
:1036300030E0BC01A40182E00E94431A81110CC059
:10364000C0E08C2FDF91CF911F910F91FF90BF9021
:10365000AF909F908F90089580911F0481110FC0AB
:103660008CB5809327048DB580932804809117042E
:10367000909118040E94AA1381E080931F0460E0D7
:1036800080911B040E949E0682E00E946C110E94A1
:1036900073118F2D0E946C1161E080911B040E94B8
:1036A0009E06C0912004C11127C021E030E040E017
:1036B00050E0C501B4010E94FC19882309F268EEAC
:1036C00073E080E090E00E94ED18D82F882309F481
:1036D000B7CF60E080911B040E949E0683E00E94A9
:1036E0006C110E94731180E00E946C11F81208C0E6
:1036F0000E944219CD2FA5CF8FE080932304A0CF45
:103700008AE0809323040E9442199BCF2F923F921C
:103710004F925F926F927F928F929F92AF92BF92E1
:10372000CF92DF92EF92FF920F931F93CF93DF938D
:10373000CDB7DEB762970FB6F894DEBF0FBECDBF30
:103740006B877C878D879E8729013A01EF86F88AEF
:10375000098B1A8B140186E00E9495184B825C82BB
:103760006D827E821F82188619861A866B817C8103
:103770008D819E810E94EB1A8F819885A985BA85DB
:103780000196A11DB11D8F839887A987BA878B8168
:103790009C81AD81BE81905FAF4FBF4F8B839C8377
:1037A000AD83BE838F819885A985BA85A816B90691
:1037B000CA06DB06D9F6812C912C54011B821C828F
:1037C0001D821E82D12C8B859C85AD85BE85881679
:1037D0009906AA06BB0608F08FC083E00E949518E0
:1037E000AE014F5F5F4F60E071E0C1010E94D10BFD
:1037F000D11013C0F101319601E010E081918823CE
:1038000009F472C0D02E86E00E949518402F6F8573
:10381000788989899A890E94091B8114910409F485
:1038200041C088E00E949518AB810FEF1FEFA0FF09
:1038300002C000E014E88091F1029091F202209120
:10384000EF023091F002820F931F2091ED02309130
:10385000EE02820F931F2091EB023091EC02820F57
:10386000931F68E070E00E94453D24E0880F991F97
:103870002A95E1F728E030E048E050E070E060E0B1
:10388000E6E7F0E0E81BF90BCF010E9479038B819A
:103890009C81AD81BE810196A11DB11D8B839C834E
:1038A000AD83BE8386E00E949518E980FA80870187
:1038B00030E020E0B301A20182E00E94431A882395
:1038C00071F09701A101C301B2010E946A19882316
:1038D00031F089819A81480E591E611C711C9FEF3D
:1038E000991AA90AB90A6FCF0F5F1F4F011591E00E
:1038F000190709F083CF91CF81E062960FB6F89453
:10390000DEBF0FBECDBFDF91CF911F910F91FF9012
:10391000EF90DF90CF90BF90AF909F908F907F906F
:103920006F905F904F903F902F900895EF92FF928D
:103930000F931F93CF93DF937A01E901890130E060
:1039400020E0AB01BC0183E00E94431A182F8823BA
:10395000E9F083E00E94DC132097B1F0F701808149
:103960008EBDCE01019741F031810DB407FEFDCF30
:103970002EB53EBD2193F6CF2197CE0DDF1D0DB4A0
:1039800007FEFDCF8EB588830E944219812FDF91FB
:10399000CF911F910F91FF90EF900895EF92FF92BA
:1039A0000F931F93CF937A0101E010E020E030E005
:1039B000AB01BC0183E00E94431AC82F882389F021
:1039C00060E080911B040E949E0683E00E946C11BF
:1039D0000E94731180E00E946C11F70180830E94A5
:1039E00042198C2FCF911F910F91FF90EF90089566
:1039F000CF93DF931F92CDB7DEB71982AE014F5F31
:103A00005F4F0E94CE1C89810F90DF91CF91089566
:103A1000CF9386E00E9495186EEF7FEF82E090E0F2
:103A20000E94F81CC82F6FEF7FEF82E090E00E94A9
:103A3000F81C9091030391110DC02C2F30E0322F10
:103A40002227280F311D8091D0029091D102821738
:103A5000930731F488EC90E090930D0180930C0172
:103A6000CF910895CF93DF931F92CDB7DEB7198220
:103A7000AE014F5F5F4F0E94CE1C89810F90DF9196
:103A8000CF910895FC01862F22E330E03383228317
:103A900028E532E03583248328EE33E0378326831C
:103AA00012861486138616861586108A1786128A41
:103AB000118A148A138A168A158A108E178A128E12
:103AC000118E148E138E168E158E10A2178E12A2C2
:103AD00011A216A215A210A617A212A611A614A62C
:103AE00013A6608371831186108662E00C94CC0665
:103AF0002F923F924F925F926F927F928F929F92FE
:103B0000AF92BF92CF92DF92EF92FF920F931F93EB
:103B1000CF93DF93CDB7DEB7C854D2400FB6F89439
:103B2000DEBF0FBECDBF8091DF028823E9F081E0C8
:103B30008093D202C85BDD4F0FB6F894DEBF0FBE94
:103B4000CDBFDF91CF911F910F91FF90EF90DF904C
:103B5000CF90BF90AF909F908F907F906F905F902D
:103B60004F903F902F9008957E0122EEE21A2EEFA3
:103B7000F20A81E091E0D701FC011D923197E9F74B
:103B800086E00E9495186091DD027091DE02072E9A
:103B9000000C880B990B70518D4F9F4F0E94321D66
:103BA00090E0B0E0A0E04C015D01F3E09F0EA11CAD
:103BB000B11CBA2CA92C982C8824CF5BDD4FF9823C
:103BC000E882C154D2408E01025E1D4FC15CDD4FC0
:103BD000F982E882CF53D240C501B4010E94321D60
:103BE000C15CDD4FA881B981CF53D2408D93C15CB8
:103BF000DD4FB983A883CF53D240BFEF8B1A9B0A06
:103C0000AB0ABB0AC15CDD4FE881F981CF53D240DA
:103C10000E171F0709F788E00E949518CE0101963C
:103C20000E94E312CE0101960E94630249815A81EB
:103C30004115510509F4B2C134E0440F551F3A95BE
:103C4000E1F723E030E02C0F3D1F420F531F8E01A0
:103C5000015D1D4FB701C8010E941C13D801EC91F2
:103C6000F0E0E455FF4FE491EC931496EC91149737
:103C7000F0E0E455FF4FE4911496EC9314971896F6
:103C8000EC911897F0E0E455FF4FE4911896EC930F
:103C900018971C96EC911C97F0E0E455FF4FE491C7
:103CA0001C96EC931C971D968C911D971996EC9180
:103CB0001997F0E0E455FF4FE4911D96EC931D97A2
:103CC0001596EC911597F0E0E455FF4FE4911996A5
:103CD000EC9319971196EC911197F0E0E455FF4F92
:103CE000E4911596EC931597E82FF0E0E455FF4F1B
:103CF000E4911196EC93119712968C9112971A9663
:103D0000EC911A97F0E0E455FF4FE4911296EC9392
:103D10001297E82FF0E0E455FF4FE4911A96EC93E8
:103D20001A9716968C9116971E96EC911E97F0E0B6
:103D3000E455FF4FE4911696EC931697E82FF0E0C8
:103D4000E455FF4FE4911E96EC931E9713968C91C9
:103D500013971796EC911797F0E0E455FF4FE49115
:103D60001396EC9313971B96EC911B97F0E0E45598
:103D7000FF4FE4911796EC9317971F96EC911F97BE
:103D8000F0E0E455FF4FE4911B96EC931B97E82F6E
:103D9000F0E0E455FF4FE4911F96EC93E9808FEF3C
:103DA0008E0DB0E18B9FC0011124E1E0F0E0EC0F3B
:103DB000FD1F8E0F9F1FCD5BDD4F19821882C354EC
:103DC000D2409C012E5F3F4FC95BDD4F3983288372
:103DD000C754D2404BE1F42EEA94EE2009F4D5C04A
:103DE000CD5BDD4F88819981C354D24024E0880F98
:103DF000991F2A95E1F7C95BDD4F48815981C75466
:103E0000D240481B590BB801CE01815E9D4F0E94E4
:103E10001C13DE01A15EBD4FCB5BDD4F1983088310
:103E2000C554D24065E070E09C9111968C91119739
:103E300012963C91129713962C911397B92EBB0CA6
:103E400097FDBF24982E990C87FD9F24A32EAA0CC2
:103E500037FDAF24C22ECC0C27FDCF24DB2CDD0C8C
:103E6000B7FCDF24592D550F97FC5F254A2D440FD1
:103E7000A7FC4F25FC2DFF0FC7FCFF252D2C220C86
:103E8000D7FC2F24352E330C57FD3F24442E440CF1
:103E900047FD4F24EF2FEE0FF7FDEF25792E72240B
:103EA000582E5324832E8424622E6E26D22453252A
:103EB00044254F2E4E26E32FEB25E925ED25E5255C
:103EC000E427E625F0E0E455FF4F3491CB5BDD4F6E
:103ED000E881F981C554D2403083E22FE925EA25F3
:103EE000E725E527E825E425F0E0E455FF4F249198
:103EF000FB01EF70FF27E00FF11F20839A259C251F
:103F0000D9265D2445256426E62DF0E0E455FF4FD3
:103F10004491FB013596EF70FF27E00FF11F4083BE
:103F2000E82FEB25EC25E725E527E825E425F0E05B
:103F3000E455FF4F4490FB013A96EF70FF27E00FE6
:103F4000F11F40821496CB5BDD4F28813981C55427
:103F5000D2402C5F3F4FCB5BDD4F39832883C55464
:103F6000D2406C5F7F4F6531710509F05DCFCD5B4D
:103F7000DD4F88819981C354D2400196CD5BDD4FDE
:103F800099838883C354D24027CFAE014D5F5F4FE2
:103F9000B801CE01825E9E4F0E941C1386E00E94F3
:103FA0009518CF5BDD4FA881B981C154D2406D9186
:103FB000CF5BDD4FB983A883C154D24070E0745FFA
:103FC000072E000C880B990B0E94321DCF5BDD4F32
:103FD000E881F981C154D24031978083C15CDD4FC3
:103FE000E881F981CF53D240CF5BDD4F2881398101
:103FF000C154D240E217F307A1F68E01025E1E4FB4
:10400000D8016D918D01662309F494CD603419F5C2
:1040100066E889EF93E00E94AF1061E789EF93E0D3
:104020000E9417111092FF031092000410920104D5
:104030001092020410920304109204041092FD03E3
:104040008DEF93E00E94FA076AE070E080E090E074
:104050000E942D07D5CF89EF93E00E941711F4CF6E
:104060002F923F924F925F926F927F928F929F9288
:10407000AF92BF92CF92DF92EF92FF920F931F9376
:10408000CF93DF93CDB7DEB72C970FB6F894DEBF92
:104090000FBECDBF182F4B013A012DB73EB73C875D
:1040A0002B8786E00E94951880911501C12CB0EAFB
:1040B000DB2EE12CF12C813029F4C12CA0E3DA2E87
:1040C000E12CF12C812F012E000C990B8097880F89
:1040D000991F092E000CAA0BBB0BC80ED91EEA1E95
:1040E000FB1E22E030E0AE014F5F5F4FC701B6011B
:1040F0000E94961C81113BC0C701B6011B012C0117
:104100003FEF231A330A430A530A0E94F81C8D8397
:10411000082F880F110B0F5F1F4F17FF02C00F5F93
:104120001F4F1595079511272091150180E2289FB3
:1041300090011124209FC001219F900D309F900D70
:104140001124EDB7FEB7E81BF90B0FB6F894FEBFCC
:104150000FBEEDBF2DB73EB72F5F3F4F69011182F4
:104160003296029797FD2AC011920197FBCF698181
:1041700070E090E080E0982F872F762F66272A81C5
:10418000620F711D811D911D20911501C12C50EAF6
:10419000D52EE12CF12C213029F4C12C40E3D42E72
:1041A000E12CF12C6C0D7D1D8E1D9F1D223009F020
:1041B000A5CF1B350CF4A2CF0196A0CFC801019763
:1041C00098878F83740191E0E91AF108E00EF11EDF
:1041D000F8013297FA87E987580180911501F0E2DA
:1041E0008F9FC0011124809F9001819F300D909F6F
:1041F000300D1124A601C201B1010E94961C20912C
:1042000015012E8380E2289F90011124209FC00178
:10421000219F900D309F900D1124209140033091EB
:104220004103DC82CB82F601AF014C195D094817CE
:10423000590750F44081411105C04181411102C02C
:10424000308321833296F0CF88E00E9495182C9815
:10425000EE8190E1E99FA0011124460D571D4150C8
:1042600051099701B401C3010E9410032C9A0DB4A7
:1042700007FEFDCF20911501F0E12F9F9001112441
:104280002A9DC0012B9D900D3A9D900D1124880F01
:10429000991F2C988C0D9D1D2B813C8182179307B3
:1042A00051F0F9012191FC83EB832EBD009601D0E2
:1042B00001C00895F1CF2C9A0DB407FEFDCF2091D7
:1042C0001501F0E22F9F90011124209FC001219F32
:1042D000900D309F900D1124092E000CAA0BBB0BE2
:1042E000280E391E4A1E5B1E86E00E94951821E0AA
:1042F000A21AB108800E911E8F819885E80EF91ED2
:10430000E985FA85AE16BF0609F067CF8D818F5F0C
:104310002B853C850FB6F8943EBF0FBE2DBF2C9663
:104320000FB6F894DEBF0FBECDBFDF91CF911F91C6
:104330000F91FF90EF90DF90CF90BF90AF909F9044
:104340008F907F906F905F904F903F902F90089547
:10435000CF92DF92EF92FF920F931F93CF93DF9351
:104360006C018B017A01C9012130310531F03093A4
:104370004103209340030E94D818E8018601F80108
:1043800081918F01882361F0C639D1054CF4A701D2
:10439000BE010E943020C80FD11D87FDDA95EFCFF6
:1043A000DF91CF911F910F91FF90EF90DF90CF9011
:1043B00008954F925F926F927F928F929F92AF92E9
:1043C000BF92CF92DF92EF92FF920F931F93CF9302
:1043D000DF93CDB7DEB7A4970FB6F894DEBF0FBE5C
:1043E000CDBF80E289838A838B838C830091DB023B
:1043F0001091DC024801012E000CAA08BB087E01C6
:1044000082E2E80EF11C8091DB029091DC020796BB
:10441000801791070CF452C08091E0029091E10264
:10442000081719070CF04AC086E00E949518C501CC
:10443000B40170518D4F9F4F0E94321D90E2899FB1
:1044400020011124052C000C660877086E01E4E0B9
:10445000CE0ED11CC301B20170588D4F9F4F0E94E8
:10446000321DF60181936F01882341F0FFEF4F1A4F
:104470005F0A6F0A7F0ACE14DF0461F74091DB0206
:104480005091DC02401B510B495F5F4F84E0440FA9
:10449000551F8A95E1F721E030E070E060E0CE0141
:1044A00001960E94A82186E00E9495180F5F1F4F79
:1044B0008FEF881A980AA80AB80AA5CFA4960FB653
:1044C000F894DEBF0FBECDBFDF91CF911F910F914A
:1044D000FF90EF90DF90CF90BF90AF909F908F9024
:1044E0007F906F905F904F9008958F92AF92BF92A0
:1044F000CF92DF92EF92FF920F93CF93DF93CDB7DE
:10450000DEB764970FB6F894DEBF0FBECDBF062F9F
:10451000E62EF12CA701BC01CE0101960E947B3D45
:1045200021E030E02C0F3D1F2E0D3F1D402FBE011E
:104530006F5F7F4F85E094E00E947C14811123C05F
:1045400082E18C8B1B8A0E5F1F92812CCE014396D9
:104550005C0101966C0143977C019C0140E36CE097
:1045600085E094E00E94C8140F9081110CC08C89E2
:104570008130D1F48B898430B9F481E099819A300B
:1045800009F480E0819564960FB6F894DEBF0FBE03
:10459000CDBFDF91CF910F91FF90EF90DF90CF9043
:1045A000BF90AF908F90089581E0EDCFCF93DF93D0
:1045B00000D0CDB7DEB790EA99838A8362E0CE015E
:1045C00001960E947522811105C060E182E693E0A8
:1045D0000E9475220F900F90DF91CF9108952F9236
:1045E0003F924F925F926F927F928F929F92AF9283
:1045F000BF92CF92DF92EF92FF920F931F93CF93D0
:10460000DF93CDB7DEB7A2970FB6F894DEBF0FBE2B
:10461000CDBF8AE0EAE2F1E0DE01119601900D9251
:104620008A95E1F78091D3029091D402A091D502AE
:10463000B091D602892B8A2B8B2BA1F48091D702C3
:104640009091D802A091D902B091DA0288559E4982
:10465000AF4FBF4F8093D3029093D402A093D50263
:10466000B093D6020E9463080091D3021091D40245
:104670002091D5023091D60206171707280739076F
:1046800008F0B5C1D901C801845D9E4FAF4FBF4F3F
:104690008093D3029093D402A093D502B093D60214
:1046A0008091A9028F5F8093A9028F31F0F0109260
:1046B000A90284EA94EDA2960FB6F894DEBF0FBE6D
:1046C000CDBFDF91CF911F910F91FF90EF90DF90C1
:1046D000CF90BF90AF909F908F907F906F905F90A2
:1046E0004F903F902F900C94D8180E94803C24E06B
:1046F00030E040E050E00E94E23C660F771F6C0F14
:104700007D1FFB010180F281E02DFC8FEB8F0E9469
:10471000803C20EA822E912CA12CB12CA501940181
:104720000E94E23C6B8B7C8B8D8B9E8B6B887C8894
:104730000E94803C20E830E040E050E00E94E23CF3
:104740006F8B788F898F9A8FEF88F88C0E94803CCE
:10475000A50194010E94E23C6B877C878D879E8730
:10476000CB84DC840E94803C20E830E040E050E0D4
:104770000E94E23C6F87788B898B9A8B2F843888D4
:104780000E94803CA50194010E94E23C4B018B01F8
:104790000E94803C20E830E040E050E00E94E23C93
:1047A0002B01C814D9040CF002C1681479040CF46C
:1047B00011C1902F812F8601C92ED82E942D852DC1
:1047C0002101292E382E60167106C1F524143504F6
:1047D00054F0942D852D4214530414F4922D832DFE
:1047E0001201492E582EE214F3042CF04E145F04EB
:1047F0000CF4270171014E185F08A2014F5F5F4F53
:104800002B8D3C8DB801C701A2960FB6F894DEBF80
:104810000FBECDBFDF91CF911F910F91FF90EF9011
:10482000DF90CF90BF90AF909F908F907F906F90D0
:104830005F904F903F902F900C94E8039E2D8F2D0A
:104840007201492E582E962D872D3801092F182FC9
:1048500091012E193F093E8F2D8FC60186199709A8
:1048600098A38F8F42018E189F08F801E619F70967
:10487000F88BEF879201221933093C8B2B8BC801EF
:104880008C199D099AA389A3C016D10609F446C0C4
:10489000F6013197F88FEF8B23011C861B86B12C14
:1048A000A12C2F89388D24153505DCF1C5016F8DBC
:1048B00078A10E94453DFB01EE0DFF1D8B859C8577
:1048C0006F8578890E94453D6E0D7F1D8D8D9E8D73
:1048D000A80EB91E2B853C85280D391D3C872B87DA
:1048E0006E177F072CF49E2F8F2FFB01692F782FD7
:1048F0006E1B7F0BAB014F5F5F4F2B8D3C8DB20169
:10490000CF010E94E8033FEF431A530ACACF1B01AD
:104910004F8458880B851C8564019ACFD88ECF8A26
:10492000BBCFC2018C199D09EB89FC898E9F600168
:104930008F9FD00C9E9FD00C1124C201861997091D
:10494000889D5001899DB00C989DB00C11240415D0
:1049500015050CF44CC0C60169A17AA10E94453D21
:10496000FB01E20DF31DC5016F8578890E94453D6D
:104970006E0D7F1D2B893C89C20ED31EA80CB91C5D
:104980006E177F072CF49E2F8F2FFB01692F782F36
:104990006E1B7F0BAB014F5F5F4F2B8D3C8DB201C8
:1049A000CF010E94E8033FEF431A530AD0CF6C14A3
:1049B0007D040CF008CF681479040CF4A8CFEF84C0
:1049C000F8881B014F88588C64010B891C896B8403
:1049D0007C84EFCE6C147D040CF43ACFEF84F8881D
:1049E0002F88388C6B847C84CB88DC8831CFA2966E
:1049F0000FB6F894DEBF0FBECDBFDF91CF911F91F0
:104A00000F91FF90EF90DF90CF90BF90AF909F906D
:104A10008F907F906F905F904F903F902F90089570
:104A2000CF93DF93EB01FC0101900020E9F7CF0168
:104A300005970E94D83CBE010E948B3D21E0892B46
:104A400009F420E0822FDF91CF9108952F923F92B9
:104A50004F925F926F927F928F929F92AF92BF928E
:104A6000CF92DF92EF92FF920F931F93CF93DF933A
:104A7000CDB7DEB7CD58D2400FB6F894DEBF0FBE2B
:104A8000CDBF80910303882301F180E094E89093E7
:104A90004103809340030E94D81881E08093150160
:104AA00083E00E94951813E010923F0310923E039A
:104AB0000E94C90E80FF0CC01150B1F760E872E08F
:104AC00083EF92E00E94843DFFCF90E080E0DFCF53
:104AD0000E94E109892B81F783E00E9495180091DB
:104AE0003E0310913F0301151105E1F18EE1E82E1F
:104AF000FF24F394EC0EFD1EF0920703E0920603F0
:104B000040E452E0BE016F5F7F4F84E093E00E947B
:104B1000E50D892B39F589818823F1F08C8584FF97
:104B200021C0D8018C91833021F58D899E89B0E018
:104B3000A0E0DC01992788274B8D5C8D70E060E058
:104B4000842B952BA62BB72B8093080390930903F6
:104B5000A0930A03B0930B0384E093E00E949A08A9
:104B6000892B59F062E472E083EF92E00E94843D69
:104B7000FFCF80E090E0DC01DFCF0E94630883E09C
:104B80000E949518CE01825C9D4F0E940F0DC25C61
:104B9000DD4F88819981AA81BB81CE53D240892B78
:104BA0008A2B8B2B79F3C95BDD4F8881C754D240A8
:104BB0008E3241F38F3531F3712CEEE3F2E0EC0FDE
:104BC000FD1F3996CD57DD4FF983E883C358D24096
:104BD0001E01F2EE2F1AFDEF3F0A9101205E3F4FBA
:104BE000C457DD4F39832883CC58D2408091F102DD
:104BF0009091F2022091EF023091F002820F931F08
:104C00002091ED023091EE02820F931F2091EB0272
:104C10003091EC02820F931F68E070E00E94453DE6
:104C200047E050E0481B590BE4E0440F551FEA955C
:104C3000E1F721E030E06AE070E0CD57DD4F888198
:104C40009981C358D2400E94A821F3E0FF2E83E04F
:104C50000E94951800913E0310913F030115110524
:104C600009F47FC0D80111961C92E4E6F2E0EC0F43
:104C7000FD1FCA5ADD4FF983E883C655D240CD5790
:104C8000DD4F48815981C358D240BE016F5F7F4FCD
:104C9000CE018C5A9D4F0E94E50D892B09F061C011
:104CA0008981882309F45DC08C8584FD5AC0D801B0
:104CB0008C91833009F051C08D899E89B0E0A0E0CD
:104CC000DC01992788274B8D5C8D70E060E0842B98
:104CD000952BA62BB72BF801868F978FA0A3B1A396
:104CE0008D8D9E8DAF8DB8A1828F938FA48FB58F40
:104CF000168A178A108E118E81E081836DE472E02E
:104D0000CD57DD4F88819981C358D2400E9410252C
:104D1000882309F400C186E00E94951860E07CE0D9
:104D200080E090E00E94EB1A83E00E94951813E067
:104D3000AE014F575D4F60E071E0CE01825E9E4F45
:104D40000E94D10B1150A1F7892B79F062E572E036
:104D500083EF92E00E94843DFFCF80E090E0DC0191
:104D6000B2CFFA94F11073CFC9CF43E150E06AE5B6
:104D700072E082E893E00E944D0842E050E06EE667
:104D800072E082E893E00E944D0886E00E94951848
:104D90008E01025E1E4FC12C6CE0D62EE12CF12C50
:104DA000F80141918F01C701B6010E94091BFFEF75
:104DB000CF1ADF0AEF0AFF0AC1142DE0D206E10480
:104DC000F10471F783E00E9495188091EF029091B1
:104DD000F00201969093F0028093EF020E94630824
:104DE0000E946308CD57DD4F68817981C358D24056
:104DF000CE018C589D4F0E94843D00910403109178
:104E0000050383E00E949518CE01825C9D4F0E94AD
:104E10000F0DC25CDD4F88819981AA81BB81CE5381
:104E2000D240892B8A2B8B2BA1F0C95BDD4F888167
:104E3000C754D2408E3269F08F3559F0EEE3F2E07C
:104E4000EC0FFD1F39968191882379F080528F35C0
:104E5000D0F38091100390911103A0911203B091AF
:104E60001303892B8A2B8B2B79F6C95BDD4F888145
:104E7000C754D240882309F49EC5EEE3F2E0EC0F5C
:104E8000FD1F39968191811192C52091F1023091D7
:104E9000F2028091EF029091F002820F931F4091F5
:104EA000ED025091EE02840F951F4091EB0250915C
:104EB000EC02840F951F87709927892B09F4C4C5CC
:104EC0008091100390911103A0911203B0911303EC
:104ED000892B8A2B8B2B09F089CE8091F10290913E
:104EE000F202C357DD4F0FB6F894DEBF0FBECDBF41
:104EF000DF91CF911F910F91FF90EF90DF90CF90B6
:104F0000BF90AF909F908F907F906F905F904F90E9
:104F10003F902F90089561E772E0CD57DD4F888173
:104F20009981C358D2400E9410258823F1F0C25CB9
:104F3000DD4F688179818A819B81CE53D240AE0159
:104F4000425E5E4F4A0147E0A42EB12CC12CD12C09
:104F50001CEFE12E1FE9F12E00E010E020E030E32D
:104F600040E050E00E94861B2DCF66E772E0CD57EF
:104F7000DD4F88819981C358D2400E941025882333
:104F8000E1F0C25CDD4F688179818A819B81CE53DB
:104F9000D240DE01A25EBE4F4D012AE1A22EB12C0D
:104FA000C12CD12C1CEFE12E1FE3F12E02E010E00A
:104FB00020E030EA40E050E0D5CF6BE772E0CD571B
:104FC000DD4F88819981C358D2400E941025C9576E
:104FD000DD4F8883C758D240882309F4DEC471109E
:104FE00015C086E00E94951860E070E882E090E0CD
:104FF0000E94E43060E070E083E090E00E94E430E2
:1050000060E070E883E090E00E94E430E090F1021C
:10501000F090F202CB57DD4FF982E882C558D240BA
:1050200097012F3F310511F00CF0ADC4F101119241
:10503000C457DD4F48815981CC58D2404E175F0785
:10504000B1F7BE01625E7E4F5B01FB0111922E162D
:105050003F06E1F783E00E949518AE014F575D4F80
:1050600060E071E0CE01825E9E4F0E94D10BC25C77
:10507000DD4FC880D980EA80FB80CE53D240CF5725
:10508000DD4F08811981C158D24080E090E0DC01F9
:10509000BC01C816D906EA06FB0609F482C08017CF
:1050A000910748F4F50121915F012A3009F475C098
:1050B0002D3009F472C0EEE1F1E0EC0FFD1FE60FB8
:1050C000F71F9C018C159D05AE05BF0558F4801790
:1050D000910740F441914A3029F00196A11DB11D7C
:1050E0004D3079F74901B12CA12CEEE1F1E0EC0F44
:1050F000FD1FE20FF31FA4018C149D04AE04BF0436
:1051000008F057C08016910638F481918A3009F46E
:105110004AC08D3009F447C0EEE1F1E0EC0FFD1F0D
:10512000E40FF51F24013501C2014C145D046E0427
:105130007F0468F44016510650F4A191AA3039F06A
:10514000BFEF4B1A5B0A6B0A7B0AAD3069F78F3FE2
:10515000910511F008F02FC16115710509F444C0E3
:1051600010E0261B370BEEE1F1E0EC0FFD1F6E0F98
:105170007F1FE12FF0E0E217F307E8F4DB01AE0F49
:10518000BF1FAC910EE1E02EFF24F394EC0EFD1E48
:10519000EE0DFF1DA0831F5FECCF0196A11DB11D79
:1051A00077CF96019FCF4FEF841A940AA40AB40ACE
:1051B000A2CFC401CCCFA0E0841B950B6EE171E0BF
:1051C0006C0F7D1F460F571F6A2F70E06817790715
:1051D00030F58101060F171F640F751FFB016081F9
:1051E000F8016083AF5FF0CFA0E0841B950BBEE1B8
:1051F000EB2EFF24F394EC0EFD1E4E0D5F1D6A2F67
:1052000070E06817790758F48101060F171F640FC3
:10521000751FFB016081F8016083AF5FF0CFAEE1E5
:10522000EA2EFF24F394EC0EFD1E2E0D3F1DD90136
:105230001C92820D931DFC011082CB57DD4FE8813B
:10524000F981C558D2406F01FF0FEE08FF08F3E067
:10525000DF0EE11CF11CFE2CED2CDC2CCC24CE014D
:1052600001960E94E312CE0101960E946302898199
:105270009A81892B09F4E4C28E010D5F1F4FA801AA
:10528000BE01625E7E4FCE018C599D4F0E941C1361
:10529000BB24B3944BE1A42E4B2D50E089819A811D
:1052A000481759070CF0D5C13E012CE9621A2DEFC1
:1052B000720ADE01AC5ABD4F2D0130E1430E511C84
:1052C0000FE01AE075E0E4E6F2E0EC0FFD1FE70FF7
:1052D000F11D50817C5F7F70E4E6F2E0EC0FFD1F72
:1052E000E10FF11D40811C5F1F70E4E6F2E0EC0F5E
:1052F000FD1FE00FF11D90810C5F0F70F3018081A5
:10530000E82FF0E0EE5DFC4F3491E52FF0E0EE5D2C
:10531000FC4F2491E42FF0E0EE5DFC4F8491E92FE7
:10532000F0E0EE5DFC4F9491632F660F37FD6A2528
:10533000922E990C27FD9A24F82FFF0F87FDFA254E
:10534000592F550F97FD5A25422F482749274627A1
:1053500049254C93432F4827492749254F27119624
:105360004C93119723279227F927F5271296FC9340
:10537000129728276227562713965C931397F4E019
:105380006F0E711C14964A165B0609F09CCF20E143
:10539000B29EA001112463E070E06C0F7D1F460FE8
:1053A000571FBE016C5A7D4FCE018C599D4F0E94F4
:1053B0001C13B39471CF83E00E94951800913E03B3
:1053C00010913F030115110509F492C0D8011196FF
:1053D0008C91119780FF8CC05A96CD90DD90ED9006
:1053E000FC905D978C149D04AE04BF0410F475010D
:1053F0006401F80146885788608C718C168A178A78
:10540000108E118EC114D104E104F10409F470C0AE
:105410008280912CB12CA12CF9E0880C991CAA1C3B
:10542000BB1CFA95D1F7411451046104710409F4CD
:1054300090C0B1E04B1A510861087108C701B6016C
:105440006150710981099109A50194010E94143DDF
:10545000C857DD4F288339834A835B83C858D240BD
:10546000C301B201A50194010E94143DC857DD4F4C
:10547000688179818A819B81C858D24062177307FD
:105480008407950708F465C088279927DC018819E7
:105490009909AA09BB0984219521A621B721F80100
:1054A000868B978BA08FB18FC81AD90AEA0AFB0A9C
:1054B00062A173A184A195A18C149D04AE04BF04C4
:1054C00008F06EC00E94FE0A6230710581059105E8
:1054D00068F0D80116964D905D906D907C9019976C
:1054E000641575058605970508F440C0F80111821A
:1054F000AE014F575D4F60E270E0C1010E94D10BD9
:10550000CF57DD4F48815981C158D2404E315105A6
:1055100008F093CEF10130E020E04217530709F480
:10552000ACC281918A3009F477C08D3009F474C01F
:10553000F101E20FF31FC90161918417950708F08B
:105540006EC06A3009F46BC06D3009F468C0019612
:10555000F3CFD8015E966D917D918D919C9191973D
:10556000F80162A373A384A395A3A6CF92966D932B
:105570007D938D939C93959756964D905D906D90ED
:105580007C905997480C591C6A1C7B1CF801468A70
:10559000578A608E718EC818D908EA08FB088CCF2C
:1055A000D80156968D909D90AD90BC905997C80C9F
:1055B000D91CEA1CFB1CF801C68AD78AE08EF18E42
:1055C0000E946F08611571058105910521F4D801CC
:1055D00011961C928DCFF8018280282D2150330B1B
:1055E0004901092C000CAA08BB08E9E0F694E794ED
:1055F000D794C794EA95D1F7C820D920EA20FB2098
:10560000C60ED71EE81EF91ED8019696CD92DD92E1
:10561000ED92FC9299976CCF2F5F3F4F7ECF211573
:10562000310509F42FC260E0821B930BF101E20FF8
:10563000F31F462F50E04817590708F0FACDDF0155
:10564000A40FB51F3C91420D531DDA013C936F5FCF
:10565000F0CFCC59DD4FE881C456D240F0E0EE5D8A
:10566000FC4FE491CC59DD4FE883C456D240C85971
:10567000DD4FE881C856D240F0E0EE5DFC4FE4918A
:10568000C859DD4FE883C856D240C459DD4FE88180
:10569000CC56D240F0E0EE5DFC4FE491C459DD4FB2
:1056A000E883CC56D240C059DD4FE881C057D24084
:1056B000F0E0EE5DFC4FE491C059DD4FE883C05748
:1056C000D240CB59DD4F8881C556D240C759DD4FF6
:1056D000E881C956D240F0E0EE5DFC4FE491CB5931
:1056E000DD4FE883C556D240C359DD4FE881CD5622
:1056F000D240F0E0EE5DFC4FE491C759DD4FE88306
:10570000C956D240CF58DD4FE881C157D240F0E0B2
:10571000EE5DFC4FE491C359DD4FE883CD56D24096
:10572000E82FF0E0EE5DFC4FE491CF58DD4FE883C9
:10573000C157D240CA59DD4F8881C656D240C2599E
:10574000DD4FE881CE56D240F0E0EE5DFC4FE491B3
:10575000CA59DD4FE883C656D240E82FF0E0EE5D2F
:10576000FC4FE491C259DD4FE883CE56D240C65972
:10577000DD4F8881CA56D240CE58DD4FE881C257EE
:10578000D240F0E0EE5DFC4FE491C659DD4FE88376
:10579000CA56D240E82FF0E0EE5DFC4FE491CE58BF
:1057A000DD4FE883C257D240CD58DD4F8881C357C3
:1057B000D240C159DD4FE881CF56D240F0E0EE5DD6
:1057C000FC4FE491CD58DD4FE883C357D240C55913
:1057D000DD4FE881CB56D240F0E0EE5DFC4FE49126
:1057E000C159DD4FE883CF56D240C959DD4FE8811A
:1057F000C756D240F0E0EE5DFC4FE491C559DD4F55
:10580000E883CB56D240E82FF0E0EE5DFC4FE49108
:10581000C959DD4FE883C756D24034E0440F551FC5
:105820003A95E1F783E090E08C0F9D1F480F591FD8
:10583000BE016C597D4FCE01825E9E4F0E941C13AB
:1058400086E00E94951823E0B22E00E011E020E0EF
:1058500030E0B701A60182E00E94431A811128C0FE
:10586000BA94B110F2CFD1018C91811172C0CD5791
:10587000DD4FE881F981C358D24001900020E9F75B
:105880003197BF01CD57DD4FE880F980C358D24032
:105890006E197F099701CB010497AD014219530995
:1058A0004817590788F4F90141919F014D93F5CFAD
:1058B00020E031E0AE01425E5E4FC701B6010E94BA
:1058C0006A19882369F2CFCF820D931DDC011C92E7
:1058D000ECEFE60FD1015E96EC930091F10210918E
:1058E000F202D1015F960C9385E0000F111F8A959B
:1058F000E1F786E00E94951893E0F92E4801012E09
:10590000000CAA08BB086101E12CF60141916F016E
:10591000C501B40170588D4F9F4F0E94091B882309
:1059200071F1E394FFEF8F1A9F0AAF0ABF0A20E2DA
:10593000E212EBCF8091F1029091F20201969093E6
:10594000F2028093F102C957DD4F7880C758D240E8
:1059500045CAF10101900020E9F7CF0101978219B2
:105960009309F1018E31910530F4E80FF91F10828F
:105970005E968C93B2CF158E8DE1868FAECFFA9462
:10598000F110BCCFD7CF8091ED029091EE0201963D
:105990009093EE028093ED02D6CF8091EB0290912E
:1059A000EC0201969093EC028093EB0217CA8052AE
:1059B0008F3508F467CA61E772E0CE018C589D4FBD
:1059C0000E941025882389F084E093E00E949A08C1
:1059D000809104039091050308171907D1F0CE01B7
:1059E000825C9D4F0E940F0DF3CF66E772E0CE01FF
:1059F0008C589D4F0E9410258111E6CF6DE472E016
:105A0000CE018C589D4F0E941025882309F43DCA71
:105A1000DBCFCE01825C9D4F0E940F0DC25CDD4F3B
:105A200088819981AA81BB81CE53D240892B8A2B50
:105A30008B2B79F3C95BDD4F8881C754D2408E32FE
:105A400041F38F3531F321CA8FE395E02F3F3105C4
:105A500009F034F480910303882361F080E094E836
:105A600090934103809340030E94D81883E00E94E2
:105A7000951826CA90E080E0F3CF90E080E0452BB7
:105A800009F0D7CB820D931DDC011C92D6CB1F925F
:105A90000F920FB60F9211248F939F938091E10084
:105AA0009091E100937F9093E10083FF0FC01092EB
:105AB000E90091E09093EB001092EC0092E3909358
:105AC000ED001092E40298E09093F00082FF22C073
:105AD00093E09093E9009091F200992319F09AE3F2
