:100000000C946D020C9495020C9495020C9495023C
:100010000C9495020C9495020C9495020C94950204
:100020000C9495020C9495020C94DD1F0C94BC204A
:100030000C9495020C9495020C9495020C949502E4
:100040000C9495020C9495020C9495020C949502D4
:100050000C9495020C9495020C9495020C947004E7
:100060000C9495020C9495020C9495020C949502B4
:100070000C9495020C9495020C9495020C949502A4
:100080000C9495020C9495020C9495020C94950294
:100090000C9495020C9495020C9495020C94950284
:1000A0000C9495020C9495020C949502741F771F82
:1000B000661F6A1F701F981F981F981F7B1F7F1F46
:1000C000831F891F8D1F981F931F11010011003A74
:1000D0000105260104F20101E00F3F251C1E20123C
:1000E0002A9024110000000000E10F2020202005AC
:1000F0000015A73D18252A2B2B3AB1020808B40198
:1001000007C0020A02C10102C502505BC701402AB2
:10011000840000007FFA2B040000009F3601C829EC
:100120000000000000000000002A2B280000000052
:1001300000000000000000000000000000000000BF
:10014000002C9EB4A0A1A2A434A6A7A5AE362D373C
:1001500038271E1F20212223242526B333B62EB78D
:10016000B89F8485868788898A8B8C8D8E8F9091A5
:1001700092939495969798999A9B9C9D2F3130A332
:10018000AD350405060708090A0B0C0D0E0F1011FA
:1001900012131415161718191A1B1C1DAFB1B0B580
:1001A00000070605040100080A0B0C0D09050109EA
:1001B00006A1018502050719E029E715002501754B
:1001C000019508810295017508810395067508154A
:1001D0000025730507190029738100C00408020176
:1001E0001040804010204080408008020401804080
:1001F0002010020110801020404020000000002448
:100200000027002A002D00300000000000250028F3
:10021000002B002E003100000000002300260029E2
:10022000002C002F0004040404040304050202024D
:10023000020403020202020606060606060404027F
:10024000020204040000000200090F000003040180
:10025000000C000000000000000000000000000092
:100260000000080B00020202010009040000010264
:1002700002000005240010010524010101042402EC
:10028000060524060001070581031000400904014A
:1002900000020A0000000705020240000007058373
:1002A000024000000403090412010002EF020140B1
:1002B0004F1B0492000101020301534C41524B2099
:1002C000476D624800536C61726B2054797065779A
:1002D00072697465723100637C777BF26B6FC53035
:1002E00001672BFED7AB76CA82C97DFA5947F0ADBC
:1002F000D4A2AF9CA472C0B7FD9326363FF7CC348E
:10030000A5E5F171D8311504C723C31896059A07DE
:100310001280E2EB27B27509832C1A1B6E5AA05289
:100320003BD6B329E32F8453D100ED20FCB15B6AA7
:10033000CBBE394A4C58CFD0EFAAFB434D3385454D
:10034000F9027F503C9FA851A3408F929D38F5BC85
:10035000B6DA2110FFF3D2CD0C13EC5F974417C42B
:10036000A77E3D645D197360814FDC222A90884628
:10037000EEB814DE5E0BDBE0323A0A4906245CC2BA
:10038000D3AC629195E479E7C8376D8DD54EA96CF1
:1003900056F4EA657AAE08BA78252E1CA6B4C6E8EB
:1003A000DD741F4BBD8B8A703EB5664803F60E6147
:1003B0003557B986C11D9EE1F8981169D98E949B75
:1003C0001E87E9CE5528DF8CA1890DBFE642684122
:1003D000992D0FB054BB1652096AD53036A538BFD7
:1003E00040A39E81F3D7FB7CE339829B2FFF8734A8
:1003F0008E4344C4DEE9CB547B9432A6C2233DEE47
:100400004C950B42FAC34E082EA16628D924B27629
:100410005BA2496D8BD12572F8F66486689816D474
:10042000A45CCC5D65B6926C704850FDEDB9DA5EA7
:10043000154657A78D9D8490D8AB008CBCD30AF786
:10044000E45805B8B34506D02C1E8FCA3F0F02C131
:10045000AFBD0301138A6B3A9111414F67DCEA97F4
:10046000F2CFCEF0B4E67396AC7422E7AD3585E2F8
:10047000F937E81C75DF6E47F11A711D29C5896FC0
:10048000B7620EAA18BE1BFC563E4BC6D279209A04
:10049000DBC0FE78CD5AF41FDDA8338807C731B121
:1004A0001210592780EC5F60517FA919B54A0D2DB4
:1004B000E57A9F93C99CEFA0E03B4DAE2AF5B0C80A
:1004C000EBBB3C83539961172B047EBA77D626E1A8
:1004D00069146355210C7D00C33B11241FBECFEF6F
:1004E000DAE0DEBFCDBF12E0A0E0B1E0E8E8FDE772
:1004F00002C005900D92A23BB107D9F724E0A2EB10
:10050000B2E001C01D92AE3CB207E1F712E0CDE6C9
:10051000D2E004C02197FE010E94853ECC36D1076F
:10052000C9F70E946E330C94C23E0C9400008EBD3D
:100530000DB407FEFDCF08958FEF0E9497028EB590
:100540000895DC01FB0112968C91129790E02481B2
:10055000358182179307D1F491818081813A31F4FA
:1005600081E0913091F0933089F411C0813271F4BF
:100570009B3021F482811F968C9305C09A3031F410
:10058000828150968C9381E00895089580E00895CB
:10059000DC01FB0188E4808389E4818384E4828335
:1005A0001D969C911D979F709F5B93831D968D91C7
:1005B0009C911E9724E0969587952A95E1F78F7078
:1005C0008F5B848385E00895FC0182818F5BFB0152
:1005D000808381E00895CF92DF92EF92FF920F9394
:1005E0001F93CF93DF936C01EB017B01E40EF51EAB
:1005F00000E010E0CE15DF0581F069916D30D1F398
:10060000D601ED91FC910190F081E02DC601099594
:10061000892B19F00F5F1F4FEDCFC801DF91CF91EC
:100620001F910F91FF90EF90DF90CF900895BC0144
:100630006E5F7F4FDC01ED91FC910190F081E02D28
:1006400040E0099591E0811190E0892F0895FF9293
:100650000F931F93CF93DF93C82FD42F152F062FFF
:10066000F72E8091EF02811104C083E58CBD1DBC83
:1006700004C080E58CBD81E08DBDC7FF09C040E0AE
:1006800050E0BA0187E70E942703823070F5CF77E8
:1006900061E083E00E9423230E949C0260E083E0EB
:1006A0000E9423230E949C028C2F0E9497028F2D70
:1006B0000E949702802F0E949702812F0E9497022A
:1006C0008D2F0E949702C03421F0C83421F487E8AE
:1006D00003C085E901C081E00E949702CAE00E9440
:1006E0009C0287FF02C0C150D1F7DF91CF911F91CB
:1006F0000F91FF900895EF92FF920F931F93CF9366
:10070000DF93FB012081213851F52381223239F515
:10071000DC0112962C9130E0448155814217530739
:10072000F1F4EC010B851C85E12CF12C0115110570
:1007300091F0F801448155816281738180E80E94C3
:100740004F208F3FFFEF9F0769F0E80EF91ED80199
:100750000D911C91EBCF81E08F87C70105C080E030
:1007600090E002C08FEF9FEFDF91CF911F910F912B
:10077000FF90EF900895CF93DF93CDB7DEB76997E1
:100780000FB6F894DEBF0FBECDBFFC01DB018C912C
:100790008F5F8C93BE016F5F7F4F89E1DB011D92FC
:1007A0008A95E9F729E0298384E08A8391E09D8393
:1007B00083E08E832A8721E22B879C879D879F87F2
:1007C00022E2288B27E02B8B25E02C8B8E8B20E4DC
:1007D00030E0388F2F8B998F82818B83958586852A
:1007E000998B8A8B838180688D8B49E150E080E012
:1007F0000E944F2069960FB6F894DEBF0FBECDBFA2
:10080000DF91CF9108956F927F928F92AF92BF92B6
:10081000CF92DF92EF92FF920F93CF93DF9300D0AE
:1008200000D01F92CDB7DEB73C0182E08D8340E05F
:1008300064E2C3010E94921440E066E2C3010E9498
:10084000921446E268E4C3010E94921486E28B830C
:100850008D81823048F16CE1C3010E947214482FEF
:100860004F776CE1C3010E94921487E08C831F9242
:10087000812CCE0104965C0101966C0104977C01E9
:1008800001E09E012D5F3F4F40E36CE0C3010E94F9
:10089000FD140F9081110BC08D81823039F481E0FD
:1008A0009C81911104C008C084E001C081E091E006
:1008B000823019F090E001C091E0892F0F900F90E5
:1008C0000F900F900F90DF91CF910F91FF90EF90CD
:1008D000DF90CF90BF90AF908F907F906F900895F2
:1008E0001F920F920FB60F9211242F933F938F9365
:1008F0009F93AF93BF9380916F0490917004A091E8
:100900007104B09172043091F00226E0230F2D376C
:1009100020F40296A11DB11D05C029E8230F0396FE
:10092000A11DB11D2093F00280936F049093700479
:10093000A0937104B0937204809173049091740435
:10094000A0917504B09176040196A11DB11D80930C
:10095000730490937404A0937504B0937604BF91CC
:10096000AF919F918F913F912F910F900FBE0F905C
:100970001F9018950F931F93E091C304F091C40446
:100980009B01AC01225031094109510986819781AF
:10099000A085B1850297A109B109281739074A072F
:1009A0005B0768F4A281B0E00E94193E02891389B6
:1009B00024893589600F711F821F931F03C060E077
:1009C00070E0CB011F910F9108950F931F93CF9368
:1009D000DF93DC01E091C304F091C40411961C92F2
:1009E0001E9214966D917D918D919C911797613017
:1009F00071058105910569F1068117812085318591
:100A0000601771078207930720F56115710581054D
:100A1000910539F42081233021F46685778580891A
:100A20009189ED01688779878A879B8761157105B0
:100A30008105910519F00E94BA0404C06685778586
:100A4000808991896C877D878E879F8780E090E081
:100A500002C081E090E0DF91CF911F910F91089546
:100A6000CF92DF92EF92FF920F931F93CF93DF937A
:100A70006C0179018091EF0283FD07C089E0440F8A
:100A8000551F661F771F8A95D1F781E50E942703BE
:100A9000882319F0C1E0D0E031C0C0E4DCE90E9455
:100AA0009C028F3F19F42197D1F7F4CF8E3F91F735
:100AB000C2E0D2E0C01BD10BCE19DF09E114F10472
:100AC00031F00E949C0281E0E81AF108F7CFC114CE
:100AD000D10449F00E949C02F60181936F010150FC
:100AE0001109C1F705C00E949C0201501109D9F7F4
:100AF0000E949C022197E1F7C0E0D0E061E083E032
:100B00000E9423230E949C02CE01DF91CF911F916E
:100B10000F91FF90EF90DF90CF900895CF92DF92EA
:100B2000EF92FF920F931F93CF93DF93EC016A0133
:100B30007B0102E010E02EEF31E00E943005892BAE
:100B4000A9F48881998185359A4A91F426E330E0A9
:100B5000B701A601CE010E943005892B59F4888186
:100B600099818634914431F480E015C083E013C04C
:100B700082E011C002E010E022E530E0B701A601FA
:100B8000CE010E943005892B29F488819981863411
:100B9000914451F381E0DF91CF911F910F91FF902C
:100BA000EF90DF90CF9008954F925F926F927F9277
:100BB000AF92BF92CF92DF92EF92FF920F931F936B
:100BC000CF93DF9300D000D0CDB7DEB76230710590
:100BD0008105910508F4ACC0A090C304B090C40492
:100BE000F501C680D780E084F1846C157D058E0503
:100BF0009F0508F09DC06B017C018081823009F463
:100C000052C0833009F46DC0813009F091C02601D3
:100C1000569447944C0C5D1C92013170452C552420
:100C20004694612C712C4285538564857585440DED
:100C3000551D661D771D2F3FF1E03F0729F002E0AB
:100C400010E0CE0101961CC001E010E02FEF31E072
:100C5000CE0101960E943005892B09F069C0F5018B
:100C600042855385648575854F5F5F4F6F4F7F4F1A
:100C7000440D551D661D771D20E030E0CE01029623
:100C80000E943005892B09F053C089819A81C0FEEA
:100C900007C0BC01E4E076956795EA95E1F71EC0D0
:100CA000BC017F701BC096013327220F331F7727AB
:100CB0006F2D5E2D4D2DF50182859385A485B5851B
:100CC000480F591F6A1F7B1F02E010E0CE010196FA
:100CD0000E943005892B61F569817A8180E090E07E
:100CE0002BC096012F773327220F331F220F331F7C
:100CF00097E0F694E794D794C7949A95D1F7F501C5
:100D000042855385648575854C0D5D1D6E1D7F1D67
:100D100004E010E0CE0101960E943005892B41F4D9
:100D200089819A81AB81BC81BC01CD019F7004C0D7
:100D300061E070E080E090E00F900F900F900F90D6
:100D4000DF91CF911F910F91FF90EF90DF90CF90A7
:100D5000BF90AF907F906F905F904F9008954F92AB
:100D60005F926F927F928F929F92AF92BF92CF923B
:100D7000DF92EF92FF920F931F93CF93DF934C017B
:100D80006B013A01C091C304D091C404FA011182ED
:100D90001082209709F49EC0898180FF9EC08A8DB1
:100DA0009B8DAC8DBD8D4E895F89688D798D841B3F
:100DB000950BA60BB70BA60160E070E084179507B2
:100DC000A607B70708F46C015401412C32E0532EFA
:100DD000C114D10409F484C08E899F89A88DB98D6E
:100DE000AC01BD01517066277727452B462B472B59
:100DF000D1F5FA80FA94AC01BD0129E076956795AA
:100E0000579547952A95D1F7F422C1F4892B8A2B5F
:100E10008B2B29F46E8D7F8D88A199A106C06AA1C4
:100E20007BA18CA19DA10E94D40562307105810532
:100E30009105A0F16AA37BA38CA39DA36AA17BA1CA
:100E40008CA19DA10E94BA046115710581059105CF
:100E500029F1DC01CB018F0D911DA11DB11D8EA3C8
:100E60009FA3A8A7B9A72E893F893170C201821B11
:100E7000930B76018C159D0508F47C014EA15FA1B2
:100E800068A579A58114910411F0C50102C080E024
:100E900090E087010E943005892B21F0198281E0C2
:100EA00090E020C08E899F89A88DB98D8E0D9F1DE1
:100EB000A11DB11D8E8B9F8BA88FB98FAE0CBF1C4F
:100EC000CE18DF08F30180819181E80EF91EF182CE
:100ED000E0827ECF85E090E005C084E090E002C033
:100EE00080E090E0DF91CF911F910F91FF90EF9004
:100EF000DF90CF90BF90AF909F908F907F906F903A
:100F00005F904F900895CF92DF92EF92FF920F93F0
:100F10001F93CF93DF93EC01088119810F5F1F4F5F
:100F200019F483E090E05DC04C855D856E857F851A
:100F30004115510561057105A1F3C8018F7099270D
:100F4000892B09F047C0E090C304F090C4044F5FC0
:100F50005F4F6F4F7F4F4C875D876E877F876885B8
:100F600079858A859B85F701611571058105910554
:100F700031F4848195810817190798F62BC02281D6
:100F800030E0A901415051099801E4E036952795D8
:100F9000EA95E1F724233523232BE1F40E94D405BD
:100FA0006230710581059105D0F0F701C680D780C8
:100FB000E084F1846C157D058E059F0508F0B1CFA6
:100FC000688779878A879B870E94BA046C877D87A8
:100FD0008E879F871983088380E090E002C081E0BC
:100FE00090E0DF91CF911F910F91FF90EF90DF90F4
:100FF000CF9008958F929F92BF92CF92DF92EF92FF
:10100000FF920F931F93CF93DF93EC017B016A0153
:10101000DA018C914F5F5F4F8032C9F38F3209F450
:101020006A011C821D821E821F82F601808180322D
:1010300018F050E2B52E75C0CE010E94E5044C01B7
:10104000D7011C92B0C0B192E817F907E1F780E030
:1010500020E098E031E0320FF601E20FF11DE0816F
:10106000E13208F064C0C30ED11C81E0E13208F027
:1010700080E0FB018387CE010E94E5044C01892BAF
:1010800009F091C0288139812F70332745E0220F64
:10109000331F4A95E1F74C855D856E857F8500E2BB
:1010A00010E0C7010E943005892B09F06AC0D70102
:1010B0008C91882309F469C0D7011B968C9183FD1C
:1010C00058C00A811B819701D801A801455F5F4F75
:1010D0004A175B0709F046C0F8019385911163C078
:1010E00084FF53C0E091C304F091C4048081833035
:1010F00009F055C0D70154968D919C915597A0E069
:10110000B0E0DC0199278827F701428D538D60E01C
:1011100070E0842B952BA62BB72B8C839D83AE83FD
:10112000BF836A817B81FB01CB010B968DCFEF32B0
:1011300009F499CFEE3269F1891708F094CFE7FFEF
:1011400004C0F0E0EF55FF4FE0812FE92E0F2A3168
:1011500008F4E052AB01480F511DDA01EC938F5FA8
:10116000232F78CFF90161919F019D91691709F4AF
:10117000AFCFCE010E948307009709F483CF4C01C3
:1011800012C088248394912C0EC083E0882E912C69
:101190000AC0983009F067CF88E09BE0E1CF80E09B
:1011A00090E0DC01B1CFC401DF91CF911F910F918D
:1011B000FF90EF90DF90CF90BF909F908F90089519
:1011C000AF92BF92CF92DF92EF92FF920F931F9355
:1011D000CF93DF9300D000D0CDB7DEB78091EF0280
:1011E000882301F183E00E94FA22892BD9F480E060
:1011F0000E94970280E00E9497020E949C028F71D9
:10120000853051F409E813E188ECE82EF12C0E94B6
:101210009C028F3F09F07EC061E083E00E9423239F
:101220000E949C0261E081E10E94232361E081E150
:101230000E94522361E080E10E94522361E08FE02E
:101240000E94522361E083E00E94522383E58CBD1B
:101250001DBC61E083E00E9423231AE00E949C02EF
:101260001150E1F740E050E0BA0180E40E9427030A
:10127000813009F08BC04AEA51E060E070E088E418
:101280000E942703813049F58E010F5F1F4F6E01C9
:1012900085E0C80ED11C78010E949C02F701819361
:1012A0007F01CE16DF06C1F78B81813009F06EC059
:1012B0008C818A3A09F06AC030E1E32E37E2F32EDE
:1012C00048ECA42EB12C40E050E060E070E489EEE0
:1012D0000E942703811126C02DC040E050E0BA01D2
:1012E00089EE0E942703823018F011E001E402C069
:1012F00012E009EE90E1E92E97E2F92E28ECC22ED9
:10130000D12C40E050E0BA01802F0E9427038111C8
:101310003FC033C00150110909F47ECFC7010197C6
:10132000F1F775CFC5010197F1F7F1E0EF1AF10878
:1013300069F1C9CF40E050E0BA018AE70E94270373
:10134000811124C00E949C02F80181938F01CE1666
:10135000DF06C1F7898186FD02C014E001C01CE0F0
:101360001093EF0261E083E00E9423230E949C021D
:1013700081E01123A9F080E013C040E052E060E07A
:1013800070E080E50E942703882351F310E0E8CF46
:10139000C6010197F1F781E0E81AF108B9F3B1CF7E
:1013A0000F900F900F900F90DF91CF911F910F91A1
:1013B000FF90EF90DF90CF90BF90AF9008950F9384
:1013C0001F93CF93DF931F92CDB7DEB78B01809130
:1013D0008D03811105C00E94833281E080938D03CB
:1013E00082E0898341E050E0BE016F5F7F4F8091D2
:1013F0007F030E94ED2397FD08C080917F0348E0A2
:1014000050E0B80180640E94ED230F90DF91CF91EE
:101410001F910F910895DC01683810F068582DC0B5
:10142000E62FF0E067FF11C0E058F10981E090E09D
:1014300001C0880FEA95EAF714969C911497892BBE
:1014400014968C93149760E018C0EF5DFE4F649182
:10145000611109C081E090E013969C938E931297DE
:1014600080E090E0089567FF08C014968C9114976F
:10147000826014968C9314976F7716968C911697BA
:10148000681751F117968C911797681729F11896DC
:101490008C911897681701F119968C911997681714
:1014A000D9F01A968C911A976817B1F01B968C9107
:1014B0001B97681789F0FD01369680E090E0219136
:1014C000211105C0FD01E80FF91F668305C00196D3
:1014D00086309105A1F7BECFCD01BD016C5F7F4F76
:1014E0000E94DF0981E090E00895EF92FF920F9350
:1014F0001F93CF938C01C62F0E940B0A7C01C83822
:1015000018F068E76C0F1FC0EC2FF0E0C7FF0FC0AA
:10151000E058F10981E090E001C0880FEA95EAF710
:101520008095F80194818923848360E00CC0EF5D8D
:10153000FE4F64916623C9F067FF05C0F8018481FE
:101540008D7F84836F77F80186E0662321F0968192
:10155000691301C01682815031968111F6CFB8010E
:101560006C5F7F4FC8010E94DF09C7019927CF91A7
:101570001F910F91FF90EF9008958F92AF92BF92BD
:10158000CF92DF92EF92FF920F93CF93DF93CDB77D
:10159000DEB764970FB6F894DEBF0FBECDBF062F3F
:1015A000E62EF12CA701BC01CE0101960E94983EC7
:1015B00021E030E02C0F3D1F2E0D3F1D402FBE01BE
:1015C0006F5F7F4F81EA93E00E94B114811125C0C3
:1015D00082E18C8B1B8A0E5F1F92812CCE01439679
:1015E0005C0101966C0143977C019C0140E36CE037
:1015F00081EA93E00E94FD140F9081110EC08C8946
:10160000813051F48B89843039F481E099819A30AA
:1016100009F480E0819501C081E064960FB6F894EA
:10162000DEBF0FBECDBFDF91CF910F91FF90EF9046
:10163000DF90CF90BF90AF908F9008952F923F9200
:101640004F925F926F927F928F929F92AF92BF92D2
:10165000CF92DF92EF92FF920F931F93CF93DF937E
:10166000CDB7DEB7C159D1400FB6F894DEBF0FBE7B
:10167000CDBF88E00E94CA3080910903882319F009
:1016800080E094E802C080E090E00E94FA2781E0C8
:1016900080930F0183E00E94CA3013E01092C404CB
:1016A0001092C3040E94E00880FF09C01150B1F7F6
:1016B00064EA72E089EF92E00E94A13E05C00E94B8
:1016C0000329892B99F701C0FFCF83E00E94CA301C
:1016D0008091C3049091C404892B09F442C0EE2484
:1016E000E394FE2CEC0EFD1EF0928C04E0928B0431
:1016F00044E652E0BE016F5F7F4F89E894E00E94AC
:10170000FA07009761F58981882309F41BC68C8547
:1017100084FF23C0E091C304F091C404808183302E
:1017200041F48D899E89A0E0B0E0DC0199278827EB
:1017300003C080E090E0DC014B8D5C8D60E070E0E8
:10174000842B952BA62BB72B80938D0490938E041E
:10175000A0938F04B0939004F5C583E090E0892BAB
:1017600039F066E672E089EF92E00E94A13EFFCF79
:101770000E949C2483E00E94CA30CE018F5B9E4F62
:101780000E943C2ACF5BDE4F88819981AA81BB8170
:10179000C154D140892B8A2B8B2B79F3C65BDE4F4A
:1017A0008881CA54D1408E3241F38F3531F3D12C28
:1017B00021E431E02C0F3D1F275F3F4FC657DE4F1E
:1017C00039832883CA58D140CA57DE4F39832883CA
:1017D000C658D1401E017FED271A7EEF370AC1019E
:1017E0008096C457DE4F99838883CC58D14088E0D7
:1017F0000E94CA302091F7023091F8028091F502E0
:101800009091F602820F931F2091F3023091F4021F
:10181000820F931F2091F1023091F202820F931FE9
:1018200068E070E00E94713E47E050E0481B590BB1
:1018300074E0440F551F7A95E1F721E030E06AE04B
:1018400070E0C657DE4F88819981CA58D1400E9406
:10185000AE2B83E00E94CA30E3E0FE2EEE24E39438
:1018600083E00E94CA300091C3041091C4040115A2
:10187000110509F468C0D80111961C92E4E7F1E063
:10188000EC0FFD1FC75ADE4FF983E883C955D140DD
:10189000C657DE4F48815981CA58D140BE016F5F9B
:1018A0007E4FCE01895A9E4F0E94FA07009709F099
:1018B0004FC0CF5FDE4F8881C150D140882309F4EB
:1018C00045C0C45FDE4F8881CC50D14084FD3EC00E
:1018D000E091C304F091C4048081833061F4CB5E55
:1018E000DE4F88819981C551D140A0E0B0E0DC0194
:1018F0009927882703C080E090E0DC01C55EDE4FB9
:1019000048815981CB51D14060E070E0842B952B08
:10191000A62BB72BF801868F978FA0A3B1A3C35E28
:10192000DE4F88819981AA81BB81CD51D140828FC0
:10193000938FA48FB58F168A178A108E118EE1822D
:1019400080E090E005C085E090E002C083E090E098
:10195000892B19F0FA94F11083CF61E772E0CA572E
:10196000DE4F88819981C658D1400E94D82B8823A8
:1019700009F447C086E00E94CA3060E07CE080E065
:1019800090E00E94002683E00E94CA3013E0AE017E
:1019900040585E4F60E071E0CE0101960E94AF06B4
:1019A0001150A9F7892B39F066E772E089EF92E0D0
:1019B0000E94A13EFFCF8EE792E00E947F1C82E949
:1019C00092E00E947F1C86E00E94CA308E010F5F69
:1019D0001F4F812C5CE0952EA12CB12CF801419178
:1019E0008F01C501B4010E942B1EFFEF8F1A9F0AC1
:1019F000AF0ABF0A81142DE09206A104B10471F769
:101A000022C065E972E0CA57DE4F88819981C658C5
:101A1000D1400E94D82B882319F1CF5BDE4F68811B
:101A200079818A819B81C154D14032E0C32E1CEF61
:101A3000E12E1FE9F12E03E010E020E030E843E062
:101A400050E00E94383183E00E94CA308091F50254
:101A50009091F60201969093F6028093F502A0C34E
:101A60006AE972E0CA57DE4F88819981C658D14031
:101A70000E94D82B8823A9F0CF5BDE4F6881798143
:101A80008A819B81C154D14016E0C12E1CEFE12E0A
:101A9000FF24FA9403E010E020E030EA43E050E055
:101AA000D0CF6FE972E0CA57DE4F88819981C6585E
:101AB000D1400E94D82B882309F469C3D11015C0E6
:101AC00086E00E94CA3060E070E082E090E00E9410
:101AD000233D60E070E882E090E00E94233D60E0FA
:101AE00070E083E090E00E94233DE090F702F090E8
:101AF000F802C857DE4FF982E882C858D1409701F2
:101B00002F3F310511F00CF036C3F1011192C4578B
:101B1000DE4F68817981CC58D1406E177F07B1F7CD
:101B2000CE010196CC57DE4F99838883C458D140AB
:101B3000DE01AF5FBE4FCE57DE4FB983A883C258D8
:101B4000D140FC011192CE57DE4FE880F980C25897
:101B5000D140EE15FF05B1F783E00E94CA30AE0117
:101B600040585E4F60E071E0CC57DE4F888199812C
:101B7000C458D1400E94AF06CF5BDE4F8880998069
:101B8000AA80BB80C154D140C058DE4FE881F981A2
:101B9000C058D140CC57DE4FA881B981C458D1403C
:101BA00000E010E09801B80180169106A206B30685
:101BB00051F10E171F0728F48D918A3061F08D3096
:101BC00051F0CC57DE4FA881B981C458D140A60F3F
:101BD000B71F9B010FC00F5F1F4F2F4F3F4FE3CF2A
:101BE0002E173F0788F48D918A3071F08D3061F0A7
:101BF0002F5F3F4F6901E12CF12CC814D904EA048E
:101C0000FB0470F301C09401CC57DE4FA881B98169
:101C1000C458D140A20FB31FA90108C04E175F07D7
:101C200080F48D918A3059F44F5F5F4F6A01E12C47
:101C3000F12CC814D904EA04FB0480F31CC08D30D5
:101C400099F3A1E0B0E0AC0FBD1FA40FB51FCA010E
:101C500009C08E179F0780F41D911A3069F01D305E
:101C600059F001962C01612C712C481459046A0416
:101C70007B0478F301C0CA018F3F910511F008F091
:101C80005BC06115710551F4A0E0841B950B61E008
:101C900070E06C0F7D1F460F571F36C010E0261BEB
:101CA000370BA1E0B0E0AC0FBD1F6A0F7B1FE12F27
:101CB000F0E0E217F30750F0A0E0841B950BE1E0A1
:101CC000F0E0EC0FFD1F4E0F5F1F0EC0DB01AE0FEB
:101CD000BF1FAC91EE24E394F12CEC0EFD1EEE0D33
:101CE000FF1DA0831F5FE3CF6A2F70E0681779079D
:101CF000D8F48101060F171F640F751FFB01608167
:101D0000F8016083AF5FF0CF6A2F70E06817790742
:101D100058F48101060F171F640F751FFB016081C6
:101D2000F8016083AF5FF0CFE1E0F0E0EC0FFD1F62
:101D3000E20FF31F10823FC183E00E94CA3000917E
:101D4000C3041091C4040115110509F4EAC0D801B7
:101D500011968C91119780FFE4C05A968D919D91B8
:101D60000D90BC91A02D8C159D05AE05BF0510F4FE
:101D70006C017D01F80146885788608C718C168A49
:101D8000178A108E118EC114D104E104F10409F4F4
:101D9000C8C08280912CA12CB12C69E0880C991CC0
:101DA000AA1CBB1C6A95D1F741145104610471044B
:101DB00009F447C0B1E04B1A510861087108C70126
:101DC000B6016150710981099109A50194010E9430
:101DD0002C3EC257DE4F288339834A835B83CE581B
:101DE000D140C301B201A50194010E942C3EC2570B
:101DF000DE4F688179818A819B81CE58D1406217FC
:101E0000730784079507E8F088279927DC0188196C
:101E10009909AA09BB09482259226A227B22D801C2
:101E200056964D925D926D927C925997C418D50842
:101E3000E608F70892966D917D918D919C9195970A
:101E400009C0F801668D778D80A191A162A373A36B
:101E500084A395A38C149D04AE04BF0458F50E947E
:101E6000D405623071058105910550F0F801468076
:101E7000578060847184641575058605970520F088
:101E8000D80111961C924DC0F80162A373A384A3DC
:101E900095A346885788608C718C480C591C6A1C25
:101EA0007B1C468A578A608E718EC818D908EA084A
:101EB000FB08D0CFF80186889788A08CB18CC80C1D
:101EC000D91CEA1CFB1CC68AD78AE08EF18E0E94C0
:101ED000BA04611571058105910519F4F8011182A3
:101EE00020C0D80112962C9130E0215031094901CF
:101EF000330FAA08BB0859E0F694E794D794C79427
:101F00005A95D1F7C820D920EA20FB20AB01BC01AB
:101F10004C0D5D1D6E1D7F1DF80146A357A360A7E4
:101F200071A7AE0140585E4F60E270E0C1010E94AF
:101F3000AF06C058DE4F48815981C058D1404E315C
:101F40005105E8F5F10120E030E042175307E1F0D8
:101F500081918A3031F08D3021F0F101E20FF31FD1
:101F60000AC02F5F3F4FF1CF61916A3071F071115C
:101F70000CC06D3051F0CF018219930971E08417C4
:101F8000950790F770E0F0CFC9012115310599F060
:101F900040E0821B930B220D331DE42FF0E0E81785
:101FA000F90748F4D901AE0FBF1F5C91E20DF31D94
:101FB00050834F5FF2CFF101E80FF91F1082C8572D
:101FC000DE4F28813981C858D1406901330FEE08AE
:101FD000FF0830E8C30E32E0D31EE11CF11CFE2CDA
:101FE000ED2CDC2CCC2441E0BE016F5F7F4FCB0198
:101FF0000E94EE2B86E00E94CA3043E0B42E00E03F
:1020000011E020E030E0B701A60182E00E948E1DC1
:10201000882309F49CC160E08091B7030E942323C8
:1020200082E00E946B140E94911CCC57DE4FA88165
:10203000B981C458D1408D91CC57DE4FB983A88364
:10204000C458D1400E946B14CC57DE4FE880F98011
:10205000C458D140CE57DE4F28813981C258D14073
:10206000E216F30611F761E08091B7030E94232383
:102070000E940D1DD1018C91811128C0CA57DE4FDD
:10208000E881F981C658D14001900020E9F73197E5
:10209000CF01CA57DE4FE880F980C658D1408E196B
:1020A0009F09D701F1019C0124503109AF01421968
:1020B00053094217530718F44D914193F7CFF1019B
:1020C000E20FF31F10828450D10117C0F10101907B
:1020D0000020E9F73197CF018219930984319105E6
:1020E00038F4F101E80FF91F1082F101868F07C063
:1020F000D10154961C92549784E15E968C93009182
:10210000F7021091F802F101078F95E0000F111FFF
:102110009A95E1F786E00E94CA3023E0F22E48014A
:10212000012E000CAA08BB086101D6014D916D017A
:10213000C501B40102960E942B1E882379F0BFEFDF
:102140008B1A9B0AAB0ABB0AC457DE4FE881F981A0
:10215000CC58D140CE16DF0641F703C0FA94F110F7
:10216000DECF8091F7029091F80201969093F802E9
:102170008093F70209C08091F3029091F4020196D6
:102180009093F4028093F302DD24D39409C08091EC
:10219000F1029091F20201969093F2028093F10283
:1021A0000E949C240E949C24CA57DE4F688179813A
:1021B000C658D140CE0189599E4F0E94A13E009140
:1021C000890410918A0483E00E94CA30CE018F5B9B
:1021D0009E4F0E943C2ACF5BDE4F88819981AA8165
:1021E000BB81C154D140892B8A2B8B2BA1F0C65BBC
:1021F000DE4F8881CA54D1408E3269F08F3559F054
:10220000E1E4F1E0EC0FFD1F39968191882379F02C
:1022100080528F35D0F38091950490919604A091CF
:102220009704B0919804892B8A2B8B2B79F6C65B87
:10223000DE4F8881CA54D140882349F1E1E4F1E0BE
:10224000EC0FFD1F3996819181111EC00091F7029C
:102250001091F8028091F5029091F602800F911F83
:102260002091F3023091F402820F931F2091F1022A
:102270003091F202820F931F7C01F7E0EF22FF24DE
:10228000E114F104B9F51FC080528F35E0F265E921
:1022900072E0CE0189599E4F0E94D82B81115BC0FC
:1022A0006AE972E0CE0189599E4F0E94D82B8111B4
:1022B00052C061E772E0CE0189599E4F0E94D82B2F
:1022C000811149C0C3CF88E00E94CA300F3F110579
:1022D00009F04CF480910903882319F0E12C84E87B
:1022E000F82EC70102C08FE395E00E94FA2783E031
:1022F0000E94CA308091950490919604A091970411
:10230000B0919804892B8A2B8B2B09F070CAC801D5
:10231000CF56DE4F0FB6F894DEBF0FBECDBFDF91B4
:10232000CF911F910F91FF90EF90DF90CF90BF90D2
:10233000AF909F908F907F906F905F904F903F9065
:102340002F90089589E894E00E94E50408CABA94A1
:10235000B11055CE8FCE89E894E00E94E5048091BB
:10236000890490918A040817190769F0CE018F5BE0
:102370009E4F0E943C2AF3CFC65BDE4F8881CA5431
:10238000D1408E3291F4CE018F5B9E4F0E943C2A49
:10239000CF5BDE4F88819981AA81BB81C154D14036
:1023A000892B8A2B8B2B79F3E7CF8F3561F34ECFB7
:1023B000CF93DF9300D0CDB7DEB790EA99838A83BD
:1023C00062E0CE0101960E94BD0A811105C060E164
:1023D0008CE093E00E94BD0A0F900F90DF91CF91A7
:1023E0000895E7EAF1E0E49120917B00E3FB882780
:1023F00080F990E035E0880F991F3A95E1F7922F28
:102400009F7D892B80937B00E770E064E0937C00E4
:1024100080917A00806480937A0080917A0086FDB2
:10242000FCCF809178002091790090E0922B089564
:102430000F931F93CF93DF93EA01122F032F2C9852
:1024400040914804509149049B010E945C25CE01B3
:10245000009771F00EBD02D001D001C008950000B8
:102460001EBD0096009601D001C00895019791F716
:102470002C9ADF91CF911F910F910895AF92BF9247
:10248000CF92DF92EF92FF920F931F93CF93DF9340
:10249000FC012081318137FDD7C0EC01822F0E94E1
:1024A000FA225C01088519850E949C246B017C013D
:1024B0008F89988D009739F4A016B10609F0C4C031
:1024C00081E090E07BC081309105E1F5898D9A8DA6
:1024D000AB8DBC8DB701A601481B590B6A0B7B0B5A
:1024E000A016B10679F08A819B81A0E0B0E0481780
:1024F00059076A077B0718F4188E1F8AA5C082E067
:1025000090E01DC08E819F81A0E0B0E08417950708
:10251000A607B70708F098C081E08A87EF85F88999
:10252000309709F00995E989FA89309709F00995FA
:10253000ED89FE89309709F0099586E090E0988F43
:102540008F8B6CC08230910509F03FC08D859E85D0
:10255000892B99F0898D9A8DAB8DBC8DB701A60121
:10256000481B590B6A0B7B0B8C819D81A0E0B0E06E
:1025700084179507A607B70738F4EB85FC853097D5
:1025800009F4BACF0995B8CFA016B10609F05CC01E
:102590008D8D9E8DAF8DB8A1B701A601481B590B3B
:1025A0006A0B7B0B8A819B81A0E0B0E084179507C2
:1025B000A607B70708F048C083E090E0988F8F8B9C
:1025C000C98EDA8EEB8EFC8E3FC083309105C9F444
:1025D000A016B106C9F1898D9A8DAB8DBC8DB7015E
:1025E000A601481B590B6A0B7B0B8A819B81A0E0DB
:1025F000B0E084179507A607B70730F5ED85FE858F
:1026000008C0069709F5A016B10669F01A86EB898D
:10261000FC89309709F00995188E1F8ACD8EDE8EC1
:10262000EF8EF8A211C081E08A87ED89FE8930978C
:1026300059F0DF91CF911F910F91FF90EF90DF90B4
:10264000CF90BF90AF900994DF91CF911F910F91E0
:10265000FF90EF90DF90CF90BF90AF900895FC0176
:102660006D30B1F084A1813081F06A3019F4158A9F
:10267000148A0EC080A5882359F024893589808961
:1026800091892817390798F703C080E090E00895F2
:1026900081E090E00895089580E090E008958091B1
:1026A000E7029091E802883091052CF41092E8023C
:1026B0001092E70205C008979093E8028093E70222
:1026C00081E08093DC0208958091EA029091EB0210
:1026D0008830910554F02091E7023091E802AC0176
:1026E000475051092417350734F001979093E802B9
:1026F0008093E70206C0285F3F4F3093E8022093A3
:10270000E70281E08093DC0208958091E7029091D6
:10271000E802009729F001979093E8028093E7027E
:1027200081E08093DC0208958091E7029091E802B5
:102730002091EA023091EB02215031098217930770
:102740002CF401969093E8028093E70281E0809355
:10275000DC0208954F925F926F927F92AF92BF9288
:10276000CF92DF92EF92FF920F931F93CF93DF935D
:10277000CDB7DEB7C150D1400FB6F894DEBF0FBE63
:10278000CDBF8091E902882321F081E08093DC02B3
:102790008CC08E010F5F1F4F81E091E0F8019C011A
:1027A000119221503040E1F786E00E94CA306091DA
:1027B000E7027091E802CB01770FAA0BBB0BBC01BB
:1027C000CD0170598D4F9F4F0E942C2A482E512CBD
:1027D000612C712C30E8430E32E0531E611C711CD9
:1027E000762C652C542C442478015E0181E0A80EDF
:1027F000B81E6801C301B2010E942C2AF601819320
:102800006F01FFEF4F1A5F0A6F0A7F0ACA14DB04D9
:1028100089F788E00E94CA3040E0B801C8010E94F0
:10282000EE2B86E00E94CA30F701608170E0745F91
:10283000072E000C880B990B0E942C2AF70181931C
:102840007F01EA15FB0581F7F80161918F0166238D
:1028500061F16034F9F466E885E993E00E940B0ABF
:1028600061E785E993E00E94750A10929B0310923C
:102870009C0310929D0310929E0310929F0310924E
:10288000A0031092990369E973E085E993E00E943F
:10289000DF0904C085E993E00E94750A6AE070E0F0
:1028A00080E090E00E94B323CFCFCF5FDE4F0FB622
:1028B000F894DEBF0FBECDBFDF91CF911F910F9176
:1028C000FF90EF90DF90CF90BF90AF907F906F9090
:1028D0005F904F9008958EBD00000DB407FEFDCFB0
:1028E0008EB508951F93CF93DF93EC01162F83E5E8
:1028F00090E00E94C73060E08E850E942323812FE4
:1029000080680E946B1480E00E946B14182F61E0B5
:102910008E850E9423230E94C630812FDF91CF91A4
:102920001F9108950F931F93CF93DF93EC01062F10
:10293000142F83E590E00E94C73060E08E850E94EE
:102940002323802F0E946B14812F0E946B1461E05F
:102950008E850E942323DF91CF911F910F910C94BC
:10296000C630CF92DF92EF92FF920F931F93CF93D7
:10297000DF93EC016B01142F790140E062E00E94CB
:10298000921444E06AE0CE010E94921440E864E1AF
:10299000CE010E949214A601612FCE010E94101C4C
:1029A00043E062E0CE010E94921408E813E16AE07D
:1029B000CE010E94721482FF13C040E062E0CE019B
:1029C0000E94921464E4CE010E947214F701808385
:1029D00062E4CE010E947214F701818380E004C09A
:1029E0000150110921F783E0DF91CF911F910F91E1
:1029F000FF90EF90DF90CF9008953F924F925F92BB
:102A00006F927F928F929F92AF92BF92CF92DF92FE
:102A1000EF92FF920F931F93CF93DF9300D0CDB728
:102A2000DEB73C01162F942E2901A114B10419F030
:102A3000F501408101C040E0342EF0E18F9E300C62
:102A4000112440E062E0C3010E9492144FE768E065
:102A5000C3010E94921440E864E1C3010E949214F1
:102A6000A201602FC3010E94101C432D6AE1C30123
:102A70000E949214412F62E0C3010E9492141C3004
:102A800051F46AE1C3010E947214482F40686AE160
:102A9000C3010E94921400ED17E068E0C3010E9498
:102AA0007214982F992139F480FD03C00150110947
:102AB000A1F783E0A0C06CE0C3010E947214982EBD
:102AC000837109F095C0E114F10409F459C0C114EF
:102AD000D10409F455C064E1C3010E947214582E58
:102AE000F6018081851508F47DC050825520E9F1FA
:102AF00083E590E00E94C73060E0F30186850E9484
:102B000023235A9482E90E946B148820A1F00FEFCE
:102B100010E001C0000F8A94EAF782E90E946B146A
:102B2000202F2095F701908192238023892B808389
:102B30008824839401C0812C082D10E00E0D1F1DE8
:102B4000851438F482E90E946B14F8018083839421
:102B5000F3CF80E00E946B14F801808361E0F30101
:102B600086850E9423230E94C63068E1C3010E942B
:102B700072148770A114B10421F0F501808301C0A3
:102B800080E093FC31C0E114F10481F1C114D1045F
:102B900069F19E89992351F1F6014081413021F478
:102BA000843041F58FEF27C0423020F1811122C0DF
:102BB00042509E012F5F3F4FB701C3010E94B114E5
:102BC000811119C0F6018081E80EF11CF7013297DE
:102BD0009081898198130EC0319690818A819813D3
:102BE00009C004C084E007C082E005C080E003C0E3
:102BF00081E001C087E00F900F90DF91CF911F918E
:102C00000F91FF90EF90DF90CF90BF90AF909F908B
:102C10008F907F906F905F904F903F9008952F928C
:102C20003F924F925F926F927F928F929F92AF925C
:102C3000BF92CF92DF92EF92FF920F931F93CF93A9
:102C4000DF93CDB7DEB72D970FB6F894DEBF0FBE7A
:102C5000CDBF413508F009C14D872B013C016CE126
:102C60000E947214482F4F776CE1C3010E949214A6
:102C700031E03C878C85823091F08330F1F08130F7
:102C800009F0F5C083E989839D859923D9F081E016
:102C9000F2019081953008F480E0912C18C0F5E99C
:102CA000F9833D85332381F081E0F20190819830F2
:102CB00008F480E043E0942E0AC087E9898336E077
:102CC000932E04C0912C02C023E0922E80E01D853B
:102CD000F8E09F9E1019112417FD10E0882321F0C1
:102CE00098E89B8333E001C032E021E0912F977098
:102CF00009F420E0912F959595959595290F29F444
:102D0000882309F491C0185F8FC0811102C094E03C
:102D100001C093E0291708F4922FE92DF0E03196D5
:102D2000E40DF51D232F4191A1E0B0E0AC0FBD1FD4
:102D3000A20FB11D4C932F5F422F431B491798F3ED
:102D4000DFCF8111DFC010320CF093C010E230E70A
:102D50003A839B818C8189279D8189279E81892740
:102D60008F839E01285F3F4F47E0BE016F5F7F4F1B
:102D7000C3010E94B1148111A3C01A8683E08B871E
:102D8000FE0137961F0109E08A84482D4295407F55
:102D9000480D6AE1C3010E9492141F92CE010A9667
:102DA0005C01FE013B966F0171019E012F5F3F4F59
:102DB00040E36CE0C3010E94FD14082F0F908230A5
:102DC00009F0BFCF6CE1C3010E94721485FD9AC067
:102DD0008F7109F480E2282F30E0412F110F550B3D
:102DE000421753070CF043C0182F822F8595859505
:102DF000859591E0980F422F477081E009F480E0BB
:102E0000890FE1E0F0E0EC0FFD1FE80FF11D21500C
:102E100031092770332781E090E001C0880F2A959F
:102E2000EAF79081892B808310320CF090CF912F9C
:102E300097709A87812F8595859585958E5F292F27
:102E4000F0E18F9F200D11242A8301E0911101C030
:102E500000E0080F22242394312C2C0E3D1E280E56
:102E6000311C39E0381B3B878FCF06E04BC005E0B3
:102E700049C08B81883809F442C082E094E0E92D92
:102E8000F0E03196E40DF51D980FA1E0B0E0AC0F35
:102E9000BD1FA80FB11D2C9121938F5F8913F5CF12
:102EA0008B85833041F58A85811125C09E012D5F78
:102EB0003F4F41E0B101C3010E94B114882311F0DA
:102EC000082F20C09B81F1018181981316C09C813D
:102ED0008281981312C0808182FF04C0FC85FF5F4D
:102EE000FC87C8CEF20183878C85880F9C84980E5E
:102EF0009394908207C001E005C007E003C083E01F
:102F000093E0BDCF802F2D960FB6F894DEBF0FBE95
:102F1000CDBFDF91CF911F910F91FF90EF90DF9088
:102F2000CF90BF90AF909F908F907F906F905F9069
:102F30004F903F902F900895CF93CFB7F894809102
:102F40000B03811127C0E6E3F2E08491EDEEF1E09E
:102F50009491E82FF0E0EE0FFF1FE550FE4FA59192
:102F6000B491EC91E92321F461E081E10E942323F3
:102F700061E081E10E9452238CB580618CBD8CB5EB
:102F800080648CBD61E08FE00E94522361E080E1AB
:102F90000E94522380910B038F5F80930B03CFBF5E
:102FA000CF910895CF93DF9300D01F92CDB7DEB7B6
:102FB0009B838A8319828981882F90E02A813B81B3
:102FC000820F931FFC01108289818F5F8983898121
:102FD000882389F78A819B819395FC0110828A81DD
:102FE0009B818F5F9E4FFC0110828A819B818E5F47
:102FF0009E4FFC0110828A819B818D5F9E4FFC0158
:1030000010828A819B818C5F9E4FFC0110828A8195
:103010009B818B5F9E4FFC0110820F900F900F9051
:10302000DF91CF910895CF93DF9300D000D000D0EF
:10303000CDB7DEB79C838B837E836D831A82198222
:103040000DC02B813C8189819A81820F931FFC01E5
:10305000108289819A8101969A83898329813A8194
:103060008D819E812817390760F326960FB6F89454
:10307000DEBF0FBECDBFDF91CF910895CF93DF9319
:10308000CDB7DEB729970FB6F894DEBF0FBECDBF20
:103090009D838C837F836E835987488719821B8227
:1030A0001A8219C02C813D818A819B81820F931FD6
:1030B000FC0140812E813F818A819B81820F931F79
:1030C000FC01808184279981892B89838A819B8156
:1030D00001969B838A832A813B818885998528175D
:1030E000390700F3898129960FB6F894DEBF0FBE29
:1030F000CDBFDF91CF910895CF93DF9300D000D063
:1031000000D0CDB7DEB79E838D8319828FEF8A837F
:1031100047C08981882F90E02D813E81820F931FC7
:10312000FC0180818B838A81882F90E02D813E81F4
:10313000820F931FFC0180818C839B818C81891776
:10314000A8F48981882F90E02D813E81820F931F02
:103150002C81FC0120838A81882F90E02D813E8183
:10316000820F931F2B81FC01208314C08981882F3B
:1031700090E02D813E81820F931F2B81FC012083E3
:103180008A81882F90E02D813E81820F931F2C81B0
:10319000FC01208389818F5F89838A8181508A83A2
:1031A000898188230CF0B5CF26960FB6F894DEBF40
:1031B0000FBECDBFDF91CF910895CF93DF93FC0178
:1031C000EB01DA019C01205F3F4F98818C918927A8
:1031D0008083998111968C911197892781839A8197
:1031E00012968C911297892782839B8113968C91DA
:1031F000139789278383349624961496E217F3074E
:1032000021F7DF91CF9108952F923F924F925F92D5
:103210006F927F928F929F92AF92BF92CF92DF92E6
:10322000EF92FF920F931F93CF93DF93CDB7DEB74B
:10323000AA970FB6F894DEBF0FBECDBF80E1E1EADA
:10324000F1E0DE01119601900D928A95E1F78091EF
:10325000DD029091DE02A091DF02B091E002892BA5
:103260008A2B8B2BA1F48091E1029091E202A09134
:10327000E302B091E40288559E49AF4FBF4F80935F
:10328000DD029093DE02A093DF02B093E0020E9481
:103290009C240091DD021091DE022091DF0230912A
:1032A000E002061717072807390708F0A4C1D9015B
:1032B000C801845D9E4FAF4FBF4F8093DD02909356
:1032C000DE02A093DF02B093E00280910A038F5FD9
:1032D00080930A038F3108F110920A0388E00E945C
:1032E000CA3081E593E5AA960FB6F894DEBF0FBE0B
:1032F000CDBFDF91CF911F910F91FF90EF90DF90A5
:10330000CF90BF90AF909F908F907F906F905F9085
:103310004F903F902F900C94FA270E94993D27E000
:1033200030E040E050E00E94FA3D660F771FFE015A
:10333000E60FF71F218132813AA729A70E94993D04
:1033400020EA822E912CA12CB12CA50194010E947F
:10335000FA3D698F7A8F8B8F9C8F098D1A8D0E9411
:10336000993D30E8432E512C612C712CA301920120
:103370000E94FA3D698B7A8B8B8B9C8B39893D8FB0
:103380008A898F8F0E94993DA50194010E94FA3D80
:1033900069A37AA38BA39CA3E9A0FAA00E94993DFC
:1033A000A30192010E94FA3D6DA37EA38FA398A76B
:1033B0002DA03EA00E94993DA50194010E94FA3DD6
:1033C0006D8B7E8B8F8B988F8D889E880E94993D08
:1033D000A30192010E94FA3D3B01E814F90484F430
:1033E0000815190524F44D885E886B0114C0498CBA
:1033F0005A8CC988DA880D891E896D8F7F8F0BC022
:103400000E151F050CF0F2C049A05AA0ED88FE88E9
:10341000CDA0DEA01B010E151F0524F448016D8C04
:103420007F8C05C04701780131012D8C3F8C8414BD
:103430009504C1F52614370454F0962D872D621497
:10344000730414F4922D832D1301692E782EC21467
:10345000D3042CF06C147D040CF436016101A3013B
:103460004C195D094F5F5F4F29A53AA5B401C6010C
:10347000AA960FB6F894DEBF0FBECDBFDF91CF91F5
:103480001F910F91FF90EF90DF90CF90BF90AF9082
:103490009F908F907F906F905F904F903F902F9074
:1034A0000C94181291012619370938A32F8FC701E0
:1034B000881999099AA389A35601A618B7089201F9
:1034C000281939093E8B2D8BC601821993099A8FD1
:1034D000898F92012E193F093EA32DA3E414F50410
:1034E00029F0C70101979E8F8D8F02C0FE8EED8E51
:1034F00084011A8A198AC12CD12C2D8D3E8D20175A
:10350000310784F1C60169A17AA10E94713EFB01D5
:10351000E60DF71D89899A896D897E890E94713E21
:10352000660D771D8F8D98A1C80ED91E29893A89FD
:103530002A0D3B1D3A8B298B6E177F072CF49E2F8B
:103540008F2FFB01692F782F6E1B7F0BAB014F5F15
:103550005F4F29A53AA5B801CF010E9418120F5F4D
:103560001F4FCBCFC8018E199F09298D3A8D829F9D
:103570007001839FF00C929FF00C1124C8018819F0
:1035800099098A9D60018B9DD00C9A9DD00C1124C5
:103590004016510684F1C7016DA17EA10E94713EC3
:1035A000FB01E20DF31DC6016D897E890E94713E0B
:1035B000660D771D898D9A8DE80EF91ECA0CDB1CED
:1035C0006E177F072CF49E2F8F2FFB01692F782F0A
:1035D0006E1B7F0BAB014F5F5F4F29A53AA5B8016A
:1035E000CF010E9418120F5F1F4FD2CFC988DA880F
:1035F000498C5A8C1CCFAA960FB6F894DEBF0FBE2A
:10360000CDBFDF91CF911F910F91FF90EF90DF9091
:10361000CF90BF90AF909F908F907F906F905F9072
:103620004F903F902F9008952F923F924F925F922C
:103630006F927F928F929F92AF92BF92CF92DF92C2
:10364000EF92FF920F931F93CF93DF93CDB7DEB727
:1036500064970FB6F894DEBF0FBECDBF80E28983BA
:103660008A838B83E090E502F090E60227010F2C1D
:10367000000C66087708CE0101966C018091E50286
:103680009091E60207968E159F050CF462C080911A
:10369000EA029091EB02E816F9060CF05AC086E0B7
:1036A0000E94CA30C301B20170598D4F9F4F0E94D2
:1036B0002C2AE0E28E9FC00111244C01990FAA0828
:1036C000BB081E01F4E02F0E311C03E010E0C50121
:1036D000B40102960E942C2AF10181931F018111ED
:1036E0002CC0F601E00FF11F1192CF018C199D093A
:1036F0004497D1F788E00E94CA304091E50250918A
:10370000E6024E195F09495F5F4F84E0440F551F81
:103710008A95E1F721E030E060E070E0C6010E94A8
:10372000AE2B86E00E94CA30FFEFEF1AFF0A2FEFA0
:10373000421A520A620A720AA1CF0F5F1F4F8FEF1F
:10374000881A980AA80AB80A0331110509F0BFCFF0
:10375000D1CF64960FB6F894DEBF0FBECDBFDF9118
:10376000CF911F910F91FF90EF90DF90CF90BF907E
:10377000AF909F908F907F906F905F904F903F9011
:103780002F900895CF92DF92EF92FF920F931F93A5
:10379000E091BF03E77FE330D9F1C090D603D0902A
:1037A000D703E090D803F090D903C114D104E10409
:1037B000F10421F481E08093BF032AC089019A01BA
:1037C000060F171F281F391F0C151D052E053F0555
:1037D00068F00C191D092E093F090093E6031093A8
:1037E000E7032093E8033093E90308C01092E6034F
:1037F0001092E7031092E8031092E9036093E2034A
:103800007093E3038093E4039093E50381E001C0A8
:1038100080E01F910F91FF90EF90DF90CF9008957F
:10382000DF92EF92FF920F931F93CF93DF938C0160
:10383000F62ED42EE52E83E590E00E94C73060E09E
:10384000F80186850E94232382E10E946B14CD2D0E
:10385000DE2DCE018F0D911D7C01EC16FD0621F0B1
:1038600089910E946B14F9CF61E0F80186850E946E
:103870002323DF91CF911F910F91FF90EF90DF9065
:103880000C94C6308F92AF92BF92CF92DF92EF929C
:10389000FF920F9390910201923138F190E390934F
:1038A0000C0380930D032EE033E042E06CE073E004
:1038B00081EA93E00E94B114811118C081E08F93D6
:1038C000812CA12CB12C82E0C82E81E0D82E9CE066
:1038D000E92E93E0F92E04E0970140E36CE081EAE1
:1038E00093E00E94FD140F9001C084E00F91FF90BF
:1038F000EF90DF90CF90BF90AF908F90089500979A
:1039000069F0FC0101900020E9F73197AF01481BF5
:10391000590BBC018CE293E00C94862480E090E08B
:1039200008958091BD03882321F08091E5030E94D2
:103930006B148091E4030E946B148091E3030E9456
:103940006B148091E2030E946B1481E00895CF9381
:10395000C82F8091BB0381110FC08CB58093C30326
:103960008DB58093C4038091B3039091B4030E94FA
:10397000C73081E08093BB0360E08091B7030E9471
:103980002323CB30A9F030F4C23061F0C330C9F446
:1039900083E009C0C23589F0C83D89F0C03289F49E
:1039A00080E201C082E00E946B140E94911C0CC056
:1039B0008BE00E946B148EEEF6CF82E5F4CF88ED9B
:1039C000F2CF8C2F0E946B1481E0CF910895CF939A
:1039D000DF9385E10E94A71C80E00E946B14C3EB7B
:1039E000D3E08F8761E08C810E9423238F85DF9154
:1039F000CF910895CF93DF9385E00E94A71C80E0CC
:103A00000E946B14C3EBD3E08D8761E08C810E9430
:103A100023238D85DF91CF91089561E08091B703D5
:103A20000E9423238091BD038823B1F00E94E71CEC
:103A300080FF12C089EE0E94A71C61E08091B7034D
:103A40000E9423230E94E71C80FF04C08EE0809325
:103A5000BF0302C01092BD030E94C6308091C30311
:103A60008CBD8091C4038DBD1092BB0308958F92CD
:103A70009F92AF92BF92CF92DF92EF92FF924B0153
:103A80005C0185E08A95F1F700000E948E236B01AE
:103A90007C010E94FA1C8091C00380FF22C08FEF3E
:103AA000C81AD80AE80AF80A0E948E23DC01CB0162
:103AB0008C199D09AE09BF0988159905AA05BB0592
:103AC00040F30E948E23AB01BC014C195D096E09C5
:103AD0007F0981E0481559056A057B0518F080E0EB
:103AE00001C081E0FF90EF90DF90CF90BF90AF904A
:103AF0009F908F90089586E00E94A71C61E08091BE
:103B0000B7030E9423230E94FA1C81FD05C086E0B2
:103B10008093BF0380E0089581E008958F929F9283
:103B2000AF92BF92CF92DF92EF92FF920F931F93CB
:103B3000CF93C82F6A017B01480159018091CF03BF
:103B40008F3ED9F44115510561057140B0F00E94D6
:103B5000E71C80FD12C087EB0E94A71C61E08091EA
:103B6000B7030E9423230E94E71C80FF04C081E06A
:103B70008093BD0302C08DE024C08091BC03C2309D
:103B800021F5811126C0A5019401C701B6010E944B
:103B9000C21B8823C1F083E00E94A71CC12CD12C3A
:103BA00076018C149D04AE04BF04F1F080E00E9405
:103BB0006B148F3F99F061E08091B7030E9423233B
:103BC00087E08093BF0380E03AC0CF3E21F4882392
:103BD00089F08FE0F6CF882319F1FBCF8FEFC81A59
:103BE000D80AE80AF80ADDCF61E08091B7030E94A5
:103BF000232308C0A5019401C701B6010E94C21B7E
:103C0000882309F368EE73E080E090E00E94371D9E
:103C10008823C9F20E947B1D8823A9F281E00FC08E
:103C2000A5019401C701B6010E94C21B882359F265
:103C300068EE73E080E090E00E94371DEDCFCF91F9
:103C40001F910F91FF90EF90DF90CF90BF90AF90BA
:103C50009F908F900895CF92DF92EF92FF920F93F3
:103C60001F93CF93DF936B017C01D42F01E010E011
:103C700020E030E0AB01BC0182E00E948E1D882371
:103C800009F459C08091BB0381110FC08CB580939A
:103C9000C3038DB58093C4038091B3039091B403A3
:103CA0000E94C73081E08093BB0360E08091B7033E
:103CB0000E94232382E00E946B140E94911C8D2F8E
:103CC0000E946B1461E08091B7030E942323C0918E
:103CD000BC03CC2321F08FE08093BF032CC021E0F4
:103CE00030E040E050E0C701B6010E94C21B8823CB
:103CF00011F168EE73E080E090E00E94371DF82E2D
:103D00008823C9F060E08091B7030E94232383E0F9
:103D10000E946B140E94911C80E00E946B14D817C3
:103D200031F08AE08093BF030E940D1D05C00E9400
:103D30000D1DCF2D01C0C0E08C2FDF91CF911F91C1
:103D40000F91FF90EF90DF90CF9008954091850400
:103D500050918604209183043091840442175307C4
:103D6000B4F49091E8009570E1F39091E80092FD31
:103D700019C08093F100809185049091860401968A
:103D80008F739927892B19F48EEF8093E800809127
:103D9000850490918604019690938604809385040F
:103DA00081E0089580E008952FB7F894877080939C
:103DB000E9009091E800892F807295FF04C09091EE
:103DC000F20080E4891B2FBF0895615030F02091EC
:103DD000F100FC0120830196F8CF289884E68093B7
:103DE000C6040895CF92DF92EF92FF920F931F9334
:103DF000CF93DF936C017A018B01C0E0D0E0CE1548
:103E0000DF0581F0D8016D918D01D601ED91FC9116
:103E10000190F081E02DC6010995892B11F02196C2
:103E2000EECF7E01C701DF91CF911F910F91FF90DF
:103E3000EF90DF90CF900895CF93DF931F92CDB78F
:103E4000DEB76983DC01ED91FC910280F381E02D06
:103E500041E050E0BE016F5F7F4F09950F90DF9109
:103E6000CF91089583E08093E9008091F200882348
:103E700019F08AE38093E800089583E00E94D41E3D
:103E800090E00895FC018485958597FD0BC09FB750
:103E9000F89482E08093E9008091F2009FBF90E067
:103EA000019608959FB7F89482E08093E90080918D
:103EB000F2009FBF90E0089590E0FC013197EF3051
:103EC000F105B0F5EA5AFF4F0C94853E80918000D1
:103ED0008F7703C0809180008F7D8093800008954C
:103EE00080918000877FF9CF84B58F7702C084B539
:103EF0008F7D84BD0895809190008F7707C0809159
:103F000090008F7D03C080919000877F8093900008
:103F100008958091C0008F7703C08091C0008F7D8D
:103F20008093C00008958091C200877F8093C20073
:103F300008950E948B3E0F931F93CF93DF931F92A0
:103F4000CDB7DEB78C01FC018485958597FF0EC047
:103F5000CE0101960E944033019719F4898190E0C7
:103F600002C08FEF9FEFF80195878487F801848561
:103F700095850F90DF91CF911F910F910895CF9369
:103F8000DF931F92CDB7DEB7FC018485958597FD41
:103F900005C02FEF3FEF358724870BC0CE01019678
:103FA0000E944033019719F4898190E002C08FEF9D
:103FB0009FEF0F90DF91CF9108951F920F920FB650
:103FC0000F9211248F939F938091E1009091E100D3
:103FD000937F9093E10083FF0FC01092E90091E07E
:103FE0009093EB001092EC0092E39093ED0010920E
:103FF000C70498E09093F00082FF20C093E0909374
:10400000E9009091F200992319F09AE39093E80067
:1040100090918804992339F090918804915090935D
:104020008804992389F19091C604992339F09091DD
:10403000C60491509093C604992341F184FF10C0A7
:104040008091E2008E7E81608093E2008091E100A9
:104050008F7E8093E1008091B2028E7E806111C0DC
:1040600080FF16C08091E2008E7E80618093E20026
:104070008091E1008E7E8093E1008091B2028E7E7D
:1040800081608093B20204C05D9ACDCF289AD6CFCA
:104090009F918F910F900FBE0F901F901895DF92F8
:1040A000EF92FF920F931F93CF93DF93D82E8A0145
:1040B0007B01E40EF51EEB01CE15DF0571F0D7FE96
:1040C00003C0FE01849101C088810E94A61E219632
:1040D0008111F2CF8FEF9FEF01C0C801DF91CF9127
:1040E0001F910F91FF90EF90DF90089580917B04D6
:1040F00081110DC082E08093770484E0809378047E
:1041000010927A041092790481E080937B0487E70F
:1041100094E008950F931F93CF93DF931F92CDB731
:10412000DEB782E0898342E450E062E672E080E834
:104130000E944F200E947620DC0112960D911C9166
:1041400013970115110589F0D801ED91FC910280BA
:10415000F381E02DBE016F5F7F4FC801099597FD88
:1041600004C0F80100851185ECCF89810F90DF91A3
:10417000CF911F910F9108951F920F920FB60F923A
:104180001124CF92DF92EF92FF920F931F932F9300
:104190003F934F935F936F937F938F939F93AF93CF
:1041A000BF93EF93FF93CF93DF93CDB7DEB76C97B9
:1041B000DEBFCDBF1092E9008091E80083FFFBC114
:1041C00068E0CE0145960E94E51E82EF8093E800EC
:1041D0008D8987FF05C09091E80090FFFCCF03C058
:1041E0009EEF9093E800982F907609F0C6C09E89C4
:1041F0004F89588D2F89F88C91110CC0803829F483
:104200008091B3028093F10002C01092F1001092ED
:10421000F10045C1913051F4811141C14130510546
:1042200009F03DC18091B3028D7F0BC0933061F4E2
:10423000811135C14130510509F031C18091B3027E
:1042400082608093B3022BC1953049F48091E800DD
:1042500080FFFCCF822F80688093E30020C19630DE
:1042600009F05EC00B8D1C8D22E01092E9001092C7
:10427000860410928504F21232C0109284041092C7
:1042800083040E948A2099E0BE016F5F7F4FDB01AB
:10429000E92F1D92EA95E9F79983FA8291E09E83CE
:1042A00090EA98879AEF9987209185043091860447
:1042B000275F3F4F3C832B838D831092E900109240
:1042C000860410928504109384040093830449E0CB
:1042D00050E080E00E944F200E948A20E0C01093AE
:1042E0008404009383040E947620DC0112960D91D1
:1042F0001C9113970115110509F4BBC0D801ED916C
:10430000FC910480F581E02DBE016B5E7F4FC801FA
:104310000995009709F0C7C0F80100851185EACF1B
:10432000973009F445C1983021F481E08093F10081
:10433000B6C0993009F0B3C0837009F039C1E1E12A
:10434000F1E081E031E096E32081211109C08EE7A0
:104350008093EA001092EA008F898093C7049FC07F
:104360008093E9003093EB0021912093EC0090932F
:10437000ED008F5F873041F7EACF8B8D9C8D1092D7
:10438000E90010928604109285049093840480932F
:104390008304898D811153C08E899D89913A49F496
:1043A000813209F005C147E050E067E071E080E04C
:1043B000BBC0913209F0FCC0833269F48F89988DBB
:1043C000A0E0B0E08093030190930401A093050165
:1043D000B093060164C0803269F48091E80082FFE6
:1043E000FCCF67E087E091E00E94E51E8BEF8093B1
:1043F000E80055C0823209F052C08F8980930E01C7
:10440000EEEFFFE7859194918B3F9C4D19F0E0E032
:10441000F8E002C0EEEFFAE0809107019091080108
:10442000A0910901B0910A01803B9440A105B1051A
:1044300009F09EC080910E0180FF79C099C00E9452
:104440007620FC01028113810115110509F4B0C029
:10445000D801ED91FC910190F081E02DBE016B5EE1
:104460007F4FC801099581111AC0F8010085118597
:10447000EBCFF1E0FF1609F44EC0F3E0FF1298C055
:104480008F89882309F44AC0823089F440E861E1C9
:1044900085EC92E00E94EE3C882309F489C08EEFFF
:1044A0008093E80088C018161906CCF381C08130CB
:1044B00029F440E86AE08AEB92E0ECCF833009F01F
:1044C00077C00E947620DC011296ED90FC90139745
:1044D0008E010F5F1F4F6801E114F10479F0D701DD
:1044E000ED91FC910680F781E02DB801C701099597
:1044F000080F111DF701E084F184EECFD8011C9262
:10450000F60101900020E9F73197BF016C197D0990
:1045100040E0C601BFCF68EA72E002C064EA72E020
:10452000FB01449150E080E80E944F20B8CFEE3F5D
:104530002AE0F20751F0808191818737A7E79A0737
:1045400021F09093FF0A8093FE0A87E797E7918313
:10455000808380916000809387049BE088E10FB6A0
:10456000F894A895809360000FBE9093600097CF59
:10457000808191818737974709F091CFA8958091E5
:104580006000886180936000809187048093600060
:10459000EE3FBAE0FB0739F08091FE0A9091FF0AE6
:1045A000918380837CCF1092FF0A1092FE0A77CF0E
:1045B00081E28093EB006C960FB6F894DEBF0FBEDD
:1045C000CDBFDF91CF91FF91EF91BF91AF919F91BF
:1045D0008F917F916F915F914F913F912F911F919B
:1045E0000F91FF90EF90DF90CF900F900FBE0F9044
:1045F0001F901895CF93DF93282F30E0F901EC5BE3
:10460000FD4F8491F901E452FE4FD491F901EB5D25
:10461000FD4FC491CC2391F081110E945C1FEC2FBF
:10462000F0E0EE0FFF1FE95EFD4FA591B491EC9114
:10463000ED2381E090E021F480E002C080E090E092
:10464000DF91CF9108951F93CF93DF93282F30E010
:10465000F901EC5BFD4F8491F901E452FE4FD491D6
:10466000F901EB5DFD4FC491CC23C1F0162F8111F0
:104670000E945C1FEC2FF0E0EE0FFF1FE75FFD4F85
:10468000A591B4919FB7F894111104C08C91D09565
:10469000D82302C0EC91DE2BDC939FBFDF91CF913A
:1046A0001F910895CF93DF9390E0FC01E452FE4FF9
:1046B0002491FC01EB5DFD4F8491882361F190E032
:1046C000880F991FFC01E550FE4FC591D491FC0164
:1046D000E75FFD4FA591B491611109C09FB7F894B0
:1046E0008881209582238883EC912E230BC0623031
:1046F00061F49FB7F8948881322F309583238883A3
:10470000EC912E2B2C939FBF06C08FB7F894E881B5
:104710002E2B28838FBFDF91CF9108953FB7F89458
:104720008091730490917404A0917504B091760403
:1047300026B5A89B05C02F3F19F00196A11DB11DFC
:104740003FBFBA2FA92F982F8827820F911DA11D37
:10475000B11DBC01CD0143E0660F771F881F991F73
:104760004A95D1F708958F929F92AF92BF92CF92C0
:10477000DF92EF92FF926B017C010E948E234B012E
:104780005C01C114D104E104F104F1F00E948E2314
:10479000DC01CB0188199909AA09BB09883E93401D
:1047A000A105B10570F321E0C21AD108E108F108B2
:1047B00088EE880E83E0981EA11CB11CC114D104A0
:1047C000E104F10419F7DDCFFF90EF90DF90CF9077
:1047D000BF90AF909F908F9008957F928F929F92FD
:1047E000AF92BF92CF92DF92EF92FF920F931F93FF
:1047F000CF93DF93C82E8B017A018091C70481117A
:1048000003C08FEF9FEF74C08091B20280FF05C09C
:104810008091E00082608093E000CE2DDF2DD12CCE
:104820008AEFB82E8C2D8770982E8C2D8072882E52
:104830008C2D8074782E9AE3A92E209719F4DD2010
:1048400009F451C08C2D0E94D41E81110AC0BA9463
:10485000BB20B9F261E070E080E090E00E94B323F9
:10486000ECCF282F30E0C217D3070CF48C2F9FB762
:10487000F8949092E9002091E80025FF32C0282F9B
:1048800030E0C21BD30B882029F08150A0F0109299
:10489000F100FBCFF801C7FE0AC0815050F04491EF
:1048A0004093F1003196F9CF41914093F10081504E
:1048B000D8F7020F131FDD2019F0A092E8000AC0FC
:1048C0008091E80085FD08C0A092E800DD24D39423
:1048D000209739F0D12C05C0209719F47110A092BF
:1048E000E8009FBFAACF5D9884E680938804C70143
:1048F000DF91CF911F910F91FF90EF90DF90CF90BC
:10490000BF90AF909F908F907F900895CF93DF934B
:10491000EC0180910E01882331F083E00E94ED23A9
:104920001816190634F081E090E09B838A8380E0BA
:1049300090E0DF91CF9108952FB7F89460916F04C4
:104940007091700480917104909172042FBF08954A
:104950002C982091590430E028173907B9F02D9888
:104960009AE29EBD0000009601D001C00895809398
:1049700059042D9A1EBC02D001D001C00895000038
:104980008EBD0000009601D001C0089580915804AA
:1049900090E086179707C1F02D988BE28EBD00003E
:1049A000009601D001C00895609358042D9A1EBC52
:1049B00002D001D001C0089500006EBD0000009635
:1049C000009601D001C008952D988CE28EBD00960E
:1049D0000096009601D001C008952D9A5EBD02D0C8
:1049E00001D001C0089500004EBD00000096009661
:1049F00001D001C008952C9A08959CB520914004DF
:104A00002CBD8EBD00000DB407FEFDCF9CBD0895EA
:104A10000F931F93CF93DF93EA0102E010E020E0B1
:104A200030E0AB01BC0183E00E948E1D182F88236B
:104A300099F083E00E94A71C88818EBD99810DB4F6
:104A400007FEFDCF8EB59EBD88830DB407FEFDCF5A
:104A50008EB589830E940D1D812FDF91CF911F910B
:104A60000F910895EF92FF920F931F93CF937A01C6
:104A700001E010E020E030E0AB01BC0183E00E94E7
:104A80008E1DC82F882389F060E08091B7030E94B3
:104A9000232383E00E946B140E94911C80E00E94FB
:104AA0006B14F70180830E940D1D8C2FCF911F91F5
:104AB0000F91FF90EF9008952D989AE29EBD009679
:104AC0000096009601D001C008952D9A1EBC009654
:104AD0000096009601D001C008959FEF909359046D
:104AE0008EBD0000009601D001C0089580915A0447
:104AF00090E08417950781F01EBC00960096009602
:104B000001D001C0089540935A044EBD00000096A4
:104B1000009601D001C008952D988BE28EBD0096BD
:104B20000096009601D001C008952D9A1EBC0096F3
:104B30000096009601D001C008958FEF809358042D
:104B40006EBD0000009601D001C0089580915B0405
:104B500090E08217930781F01EBC009600960096A5
:104B600001D001C0089520935B042EBD0000009683
:104B7000009601D001C008952D988CE28EBD0000F2
:104B80000096009601D001C008952D9A0895EF92E5
:104B9000FF920F931F93CF93DF937A01E9012C9833
:104BA0009B012C0F3D1F21503109AC014E0D5F1DA3
:104BB000415051090E945C25EC16FD062CF49E2DF7
:104BC0008F2D7E01C92FD82F219790F0C701009714
:104BD00071F01EBD02D001D001C0089500000EBDCD
:104BE0000096009601D001C00895019791F7ECCF8F
:104BF0002C9ADF91CF911F910F91FF90EF90089524
:104C00000F931F93AB01BC0100E010E120E030E006
:104C10008FEE0E948E1D882369F080E20E94A71CFF
:104C20000E940D1D60E271EA87E090E01F910F91F4
:104C30000C94371D80E01F910F910895CF93DF935F
:104C40001F92CDB7DEB71982AE014F5F5F4F0E9452
:104C5000322589810F90DF91CF9108952F923F9255
:104C60004F925F926F927F928F929F92AF92BF927C
:104C7000CF92DF92EF92FF920F931F93CF93DF9328
:104C8000CDB7DEB7A4970FB6F894DEBF0FBECDBF89
:104C9000262E78A35F8F4E8F90910F01082F880FDB
:104CA000110BAE014F5F5F4F9130D9F46CEF7FE98C
:104CB00083E090E00E940825882311F0B9808A8063
:104CC00000521109B09E6001B19ED00C11240D2C30
:104CD000000CEE08FF0820E8D20E23E0E21EF11CD3
:104CE0001AC06CEF7FEF83E090E00E9408258823D4
:104CF00011F0B9808A8000521109B09E6001B19E06
:104D0000D00C11240D2C000CEE08FF0830EAD30E55
:104D100033E0E31EF11C811016C040E6B49EC001D2
:104D20001124092E000CAA0BBB0B8C0D9D1DAE1D72
:104D3000BF1D9C01AD012F5F3F4F4F4F5F4F2B8336
:104D40003C834D835E8386E00E94CA30D701C60152
:104D50000196A11DB11D8B8B9C8BAD8BBE8BC701AA
:104D6000B6010E941E268F8B912C1B861C861D86E9
:104D70001E862B893C894D895E898B819C81AD8102
:104D8000BE81281B390B4A0B5B0B29A33AA34BA30B
:104D90005CA3C92C092C000CDD0880910F0190E068
:104DA000C816D9060CF0FBC0C601E4E0880F991FB5
:104DB000EA95E1F7AE8DBF8DA81BB90BBD8FAC8F07
:104DC000CC0CDD1C0D2C000CEE08FF082B813C8167
:104DD0004D815E81C20ED31EE41EF51E8B899C8917
:104DE000AD89BE898F839887A987BA872F87388B2B
:104DF000498B5A8B022D18A1802F82199F89891700
:104E00000CF0CBC080910F01AE014F5F5F4F81303E
:104E100009F56F81788589859A850E940825882300
:104E200079F08A8190E0982F88272981820F911D3F
:104E30009C01990F440B550B288F398F4A8F5B8F3C
:104E400081102EC0AE014F5F5F4F6F8578898989D1
:104E50009A8922C069A17AA18BA19CA16C0D7D1DAC
:104E60008E1D9F1D0E940825882379F08A8190E07D
:104E7000982F88272981820F911D9C01990F440B3F
:104E8000550B288F398F4A8F5B8F811009C0AE0177
:104E90004F5F5F4FC701B6010E94082581119AC07C
:104EA00088E00E94CA30AC8CBD8C40E1342E412C8D
:104EB00050E8552E612C712C888D998DAA8DBB8D53
:104EC00084219521A621B721892B8A2B8B2BA9F030
:104ED0008091480490914904A816B90694F58091F0
:104EE0004A0490914B04081719075CF5B7FC29C0D8
:104EF00017FD27C04FEF5FEF20C08B859C85AD85E8
:104F0000BE8584219521A621B721892B8A2B8B2B45
:104F1000C1F08091480490914904A816B9068CF418
:104F200080914A0490914B040817190754F4B7FC78
:104F300008C017FD06C040E154E8B801C5010E9451
:104F4000A8243FEFA31AB30A759467945794479423
:104F50003A943110B1CF86E00E94CA300F5F1F4FE4
:104F600044E0C40ED11CE11CF11C8F859889A989ED
:104F7000BA890296A11DB11D8F87988BA98BBA8B18
:104F80002F81388549855A852E5F3F4F4F4F5F4FA0
:104F90002F83388749875A872FCF9394FACE8F89EA
:104FA0008F5FA4960FB6F894DEBF0FBECDBFDF9122
:104FB000CF911F910F91FF90EF90DF90CF90BF9016
:104FC000AF909F908F907F906F905F904F903F90A9
:104FD0002F9008958A8190E0982F88272981820F49
:104FE000911D9C01990F440B550B2B873C874D87D6
:104FF0005E8756CF0F931F93E8E3F4E0228933894D
:10500000408951898C0160E070E080E090E00E946E
:10501000C7251F910F9108952F923F924F925F9253
:105020006F927F928F929F92AF92BF92CF92DF92B8
:10503000EF92FF920F931F93CF93DF9300D000D096
:10504000CDB7DEB76A017B012DB73EB73C832B831A
:1050500092E090930F01082F10E04F3F510561053A
:1050600071050CF46DC08DB79EB79A83898300D00B
:1050700000D000D0EDB7FEB731965F014F01800E32
:10508000911E60E071E080E090E03AE0432E512C08
:10509000612C712C8A149B0459F0A30192010E9487
:1050A000FA3D605DF40162934F01B901CA01F2CF8C
:1050B000F501E00FF11F10822FE335E04AE550E0E3
:1050C0006AE070E0C5010E94AE2B81E080930F0181
:1050D00088E2F5018083712C93E0892E912C2AE0DF
:1050E000222E312C412C512C872D90E083309105BC
:1050F00094F48401081B190B0A0D1B1DC701B6018E
:10510000A20191010E94FA3D605DF801608369018E
:105110007A017394E9CF89E2F5018483158221E055
:1051200030E04CE350E06AE070E0C5010E94AE2B35
:1051300029813A810FB6F8943EBF0FBE2DBF3CC007
:105140002DB63EB6C8010196EDB7FEB7E81BF90BC8
:105150000FB6F894FEBF0FBEEDBF2DB73EB72F5F61
:105160003F4F49015901A00EB11E8AE0482E512C33
:10517000612C712CA814B90469F0C701B601A30110
:1051800092010E94FA3D605DF50162935F01690141
:105190007A01F0CFF501E00FF11F108220EE33E02D
:1051A0004AE550E06AE070E0C5010E94AE2B0FB600
:1051B000F8943EBE0FBE2DBE82E080930F0160EDDD
:1051C00077E080E090E00E94B3232B813C810FB612
:1051D000F8943EBF0FBE2DBF0F900F900F900F9011
:1051E000DF91CF911F910F91FF90EF90DF90CF90C3
:1051F000BF90AF909F908F907F906F905F904F90F7
:105200003F902F9008954F925F926F927F928F926E
:105210009F92AF92BF92CF92DF92EF92FF920F9345
:105220001F93CF93DF93CDB7DEB7A4970FB6F89453
:10523000DEBF0FBECDBF40E050E0BA01CE01019607
:105240000E948E05813009F500E110E02EEB31E07F
:1052500040E050E0BA01CE0101960E943005892B52
:1052600019F001E010E0D4C08D81811103C006E087
:1052700010E0CEC089849A84AB84BC84B501A401BB
:10528000CE0101960E948E0503C0812C912C540101
:10529000833039F38111EBCF04E210E02DE030E0F0
:1052A000B501A401CE0101960E9430058C01892B25
:1052B000C1F62A853B8540E050E0211531054105C6
:1052C000510521F4288D398D4A8D5B8DAC81B0E07C
:1052D0000E94193E2B013C014A815B8160E070E035
:1052E000840E951EA61EB71E8092A3049092A4045D
:1052F000A092A504B092A604298120939B04CD809E
:10530000DE80D0929E04C0929D048F819885A0E09B
:10531000B0E00097A105B10521F48C899D89AE8983
:10532000BF8934E0D694C7943A95E1F7E12CF12C8B
:10533000841B950BA60BB70B84199509A609B70911
:10534000BC01CD016C197D098E099F0930E040E058
:1053500050E00E942C3EDA01C9010296A11DB11D48
:1053600080939F049093A004A093A104B093A204FF
:10537000BA01A901465F5F40610971094F3F5F4E65
:1053800061057105F0F1873F2FEF9207A105B10587
:1053900040F083E08093990488A199A1AAA1BBA1C0
:1053A0000FC0873F9F40A105B10508F060CF81E0A5
:1053B00080939904D301C201880D991DAA1DBB1DBC
:1053C0008093A7049093A804A093A904B093AA047F
:1053D000C80CD91CEA1CFB1C4C0C5D1C6E1C7F1CF1
:1053E0004092AB045092AC046092AD047092AE0453
:1053F00010929A0489E994E09093C4048093C304C2
:1054000007C0873F9F4FA105B10518F682E0D0CFB6
:10541000C801A4960FB6F894DEBF0FBECDBFDF91D2
:10542000CF911F910F91FF90EF90DF90CF90BF90A1
:10543000AF909F908F907F906F905F904F90089566
:105440002D9A2C980E94FD242C9A08952D982C9822
:105450000E94FD242C9A0895CF93DF931F92CDB71D
:10546000DEB71982AE014F5F5F4F0E9432258981FE
:105470000F90DF91CF910895EF92FF920F931F93BA
:10548000CF93DF93CDB7DEB7AC970FB6F894DEBFFE
:105490000FBECDBF2091C3043091C404232B09F467
:1054A00041C07C01CE01819690938C0480938B0443
:1054B000E114F10429F489E894E00E94E504C2C0F3
:1054C00083E090E040919504509196046091970498
:1054D000709198044115510561057105A1F0209165
:1054E000890430918A042F70332785E0220F331FFF
:1054F0008A95E1F700E210E0CE0101960E943005A6
:10550000892B99F090C0009709F498C010929504E7
:10551000109296041092970410929804833091058B
:10552000C9F07EC085E090E08DC08981882379F044
:10553000853E29F08E3219F08C8583FF0BC089E8F7
:1055400094E00E948307009709F4BCCFDFCF83E08B
:1055500090E0DCCF8701075F1F4F40919504509189
:1055600096046091970470919804452B462B472B25
:1055700009F44AC09E012F5F3F4FF7017196D90190
:105580008D919D01803271F0853009F485EE0F5FB9
:105590001F4FA80141505109DA018C930E171F07C4
:1055A00071F701C0F8018985803299F09EE29083FD
:1055B0009F012E5F3F4F81838A85803231F02F5FBC
:1055C0003F4F82838B85803211F4F90102C08383BF
:1055D00034968C85D70118968C9318974D8D5E8DD7
:1055E0006F8D78A14D935D936D937C931397898D07
:1055F0009A8D15969C938E9314978F89988D1796F4
:105600009C938E9316978F01F801108289E894E09D
:105610000E94830783309105A9F480E090E012C0D6
:10562000009781F40BC0109295041092960410928A
:1056300097041092980481E090E004C08701075F0E
:105640001F4FE2CFAC960FB6F894DEBF0FBECDBFB2
:10565000DF91CF911F910F91FF90EF90089590915E
:10566000C5048091EC02911102C08093C504909111
:10567000C504891739F09091B4029F5F9093B402EA
:105680008093C5048091B402843010F01092B4026B
:10569000E091B402F0E0EB54FD4F80818F5F8A30DF
:1056A00010F4808301C01082E5EBF2E029EB32E0D8
:1056B00080E090E07AE06191789FA001799F500DA1
:1056C0001124CA01860F911D2E173F07A1F7909351
:1056D000DB028093DA02089582E08093EC020C945E
:1056E0002F2B81E08093EC020C942F2B0F931F93B0
:1056F000CF93DF9381E00E94421C8093D9028111F5
:1057000021C0CCE0D3E0A9EBB2E00CE113E0FE0154
:1057100081918D930E171F07D9F782E00E94421CDA
:105720008093D90281110EC0E9ECF2E08991819356
:105730000C171D07D9F780910903882321F08AE00F
:1057400090E003C0FFCF81E190E09093010180934E
:105750000001DF91CF911F910F910895CF92DF92B9
:10576000EF92FF920F931F93CF93DF936C018B0106
:105770007A01C9012130310511F00E94FA27E801B0
:105780008601F80181918F01882349F0A701BE01AC
:105790000E942E26C80FD11D87FDDA95F2CFDF912A
:1057A000CF911F910F91FF90EF90DF90CF900895D0
:1057B000CF93DF93EB01FC0101900020E9F7CF01CB
:1057C00005970E94F03DBE010E94A83E21E0892B72
:1057D00009F420E0822FDF91CF9108952F923F921C
:1057E0004F925F926F927F928F929F92AF92BF92F1
:1057F000CF92DF92EF92FF920F931F93CF93DF939D
:10580000CDB7DEB7C354D1400FB6F894DEBF0FBE9C
:10581000CDBFCE5BDE4F99838883C254D1408B01CC
:10582000D42E29EBE22E22E0F22E39EDA32E32E027
:10583000B32E37014301D3018C91803118F48DEAE6
:1058400092E002C080EB92E00E947F1CBFEF6B1AD7
:105850007B0AF401408150E060E070E019A2FE0193
:10586000B196DB01CA018F709927AA27BB2794E064
:1058700076956795579547959A95D1F731978A30E0
:1058800014F4805D01C0895C808341155105610578
:10589000710539F7CF010E947F1CA614B70451F699
:1058A00082E992E00E947F1C8FE0EBE2F2E0DE01F1
:1058B000A15FBE4F01900D928A95E1F74E01F2EE85
:1058C0008F1AFEEF9F0A88E0D401E82F1D92EA9517
:1058D000E9F791E0D40117969C931797F4019397F9
:1058E000282F01900D922A95E1F7F401DE01AD5FBA
:1058F000BE4F282F01900D922A95E1F7C15FDE4F30
:105900009883CF50D14092E0C05FDE4F9883C05162
:10591000D14093E0CF5EDE4F9883C151D14094E0F7
:10592000CE5EDE4F9883C251D14095E0CD5EDE4F12
:105930009883C351D14096E0CC5EDE4F9883C4512A
:10594000D14097E0CB5EDE4F9883C551D140CA5E0F
:10595000DE4F8883C651D14089E0C95EDE4F88831F
:10596000C751D1408AE0C85EDE4F8883C851D1401C
:105970008BE0C75EDE4F8883C951D1408CE0C65EA4
:10598000DE4F8883CA51D1408DE0C55EDE4F8883EB
:10599000CB51D1408EE0C45EDE4F8883CC51D140E4
:1059A0008FE0C35EDE4F8883CD51D1408EE090E022
:1059B0009A838983FE013196D7018C918283119657
:1059C0008C911197838312968C91129784831396EE
:1059D0008C918583B4E0EB0EF11C349679EDE716DB
:1059E00072E0F70649F7AE014D5D5F4F20E230E00F
:1059F00081E090E2B4016C5F7F4FBBE1CB2EB22E11
:105A0000DA0114977401F401AD90A1926E177F072B
:105A1000D9F7B9122CC0905EF401A081B181EB2FAF
:105A2000F0E0E952FD4FE491BE2FB827F401B083B6
:105A3000B281EB2FF0E0E952FD4FB491F401B18354
:105A4000B381EB2FF0E0E952FD4FB491F401B28342
:105A5000EA2FF0E0E952FD4FE491D4011396EC9364
:105A600087FF03C0880F8C2510C0880F0EC0EB2D58
:105A7000EF71E03151F4D401EC91F0E0E952FD4FC7
:105A8000E491ED93A617B707B9F7FA015901B0E20F
:105A9000AB1AB108D7017D907D01DF01A21BB30BCA
:105AA000AA0DBB1DAC91A725A193E616F70691F7A9
:105AB0004C5F5F4F2C5F3F4F203F310509F09FCF78
:105AC00049815A81DD2009F49BC1452B09F444C367
:105AD000AE014D5F5F4FCE5BDE4F68817981C2546E
